{
  "address": "0xB28bD47228ed4b02A954c1490071c073Fb075909",
  "abi": [
    {
      "inputs": [
        {
          "internalType": "address",
          "name": "target",
          "type": "address"
        }
      ],
      "name": "AddressEmptyCode",
      "type": "error"
    },
    {
      "inputs": [
        {
          "internalType": "address",
          "name": "implementation",
          "type": "address"
        }
      ],
      "name": "ERC1967InvalidImplementation",
      "type": "error"
    },
    {
      "inputs": [],
      "name": "ERC1967NonPayable",
      "type": "error"
    },
    {
      "inputs": [],
      "name": "EnforcedPause",
      "type": "error"
    },
    {
      "inputs": [],
      "name": "ExpectedPause",
      "type": "error"
    },
    {
      "inputs": [],
      "name": "FailedCall",
      "type": "error"
    },
    {
      "inputs": [],
      "name": "InvalidDelegate",
      "type": "error"
    },
    {
      "inputs": [],
      "name": "InvalidEndpointCall",
      "type": "error"
    },
    {
      "inputs": [],
      "name": "InvalidInitialization",
      "type": "error"
    },
    {
      "inputs": [
        {
          "internalType": "uint16",
          "name": "optionType",
          "type": "uint16"
        }
      ],
      "name": "InvalidOptionType",
      "type": "error"
    },
    {
      "inputs": [
        {
          "internalType": "bytes",
          "name": "options",
          "type": "bytes"
        }
      ],
      "name": "InvalidOptions",
      "type": "error"
    },
    {
      "inputs": [],
      "name": "LzTokenUnavailable",
      "type": "error"
    },
    {
      "inputs": [
        {
          "internalType": "uint32",
          "name": "eid",
          "type": "uint32"
        }
      ],
      "name": "NoPeer",
      "type": "error"
    },
    {
      "inputs": [
        {
          "internalType": "uint256",
          "name": "msgValue",
          "type": "uint256"
        }
      ],
      "name": "NotEnoughNative",
      "type": "error"
    },
    {
      "inputs": [],
      "name": "NotInitializing",
      "type": "error"
    },
    {
      "inputs": [
        {
          "internalType": "address",
          "name": "addr",
          "type": "address"
        }
      ],
      "name": "OnlyEndpoint",
      "type": "error"
    },
    {
      "inputs": [
        {
          "internalType": "uint32",
          "name": "eid",
          "type": "uint32"
        },
        {
          "internalType": "bytes32",
          "name": "sender",
          "type": "bytes32"
        }
      ],
      "name": "OnlyPeer",
      "type": "error"
    },
    {
      "inputs": [
        {
          "internalType": "address",
          "name": "owner",
          "type": "address"
        }
      ],
      "name": "OwnableInvalidOwner",
      "type": "error"
    },
    {
      "inputs": [
        {
          "internalType": "address",
          "name": "account",
          "type": "address"
        }
      ],
      "name": "OwnableUnauthorizedAccount",
      "type": "error"
    },
    {
      "inputs": [
        {
          "internalType": "uint8",
          "name": "bits",
          "type": "uint8"
        },
        {
          "internalType": "uint256",
          "name": "value",
          "type": "uint256"
        }
      ],
      "name": "SafeCastOverflowedUintDowncast",
      "type": "error"
    },
    {
      "inputs": [
        {
          "internalType": "address",
          "name": "token",
          "type": "address"
        }
      ],
      "name": "SafeERC20FailedOperation",
      "type": "error"
    },
    {
      "inputs": [],
      "name": "UUPSUnauthorizedCallContext",
      "type": "error"
    },
    {
      "inputs": [
        {
          "internalType": "bytes32",
          "name": "slot",
          "type": "bytes32"
        }
      ],
      "name": "UUPSUnsupportedProxiableUUID",
      "type": "error"
    },
    {
      "anonymous": false,
      "inputs": [
        {
          "components": [
            {
              "internalType": "uint32",
              "name": "eid",
              "type": "uint32"
            },
            {
              "internalType": "uint16",
              "name": "msgType",
              "type": "uint16"
            },
            {
              "internalType": "bytes",
              "name": "options",
              "type": "bytes"
            }
          ],
          "indexed": false,
          "internalType": "struct EnforcedOptionParam[]",
          "name": "_enforcedOptions",
          "type": "tuple[]"
        }
      ],
      "name": "EnforcedOptionSet",
      "type": "event"
    },
    {
      "anonymous": false,
      "inputs": [
        {
          "indexed": false,
          "internalType": "uint64",
          "name": "version",
          "type": "uint64"
        }
      ],
      "name": "Initialized",
      "type": "event"
    },
    {
      "anonymous": false,
      "inputs": [
        {
          "components": [
            {
              "internalType": "uint32",
              "name": "srcEid",
              "type": "uint32"
            },
            {
              "internalType": "bytes32",
              "name": "sender",
              "type": "bytes32"
            },
            {
              "internalType": "uint64",
              "name": "nonce",
              "type": "uint64"
            }
          ],
          "indexed": false,
          "internalType": "struct Origin",
          "name": "origin",
          "type": "tuple"
        },
        {
          "indexed": false,
          "internalType": "bytes32",
          "name": "guid",
          "type": "bytes32"
        }
      ],
      "name": "MessageReceived",
      "type": "event"
    },
    {
      "anonymous": false,
      "inputs": [
        {
          "components": [
            {
              "internalType": "bytes32",
              "name": "guid",
              "type": "bytes32"
            },
            {
              "internalType": "uint64",
              "name": "nonce",
              "type": "uint64"
            },
            {
              "components": [
                {
                  "internalType": "uint256",
                  "name": "nativeFee",
                  "type": "uint256"
                },
                {
                  "internalType": "uint256",
                  "name": "lzTokenFee",
                  "type": "uint256"
                }
              ],
              "internalType": "struct MessagingFee",
              "name": "fee",
              "type": "tuple"
            }
          ],
          "indexed": false,
          "internalType": "struct MessagingReceipt",
          "name": "receipt",
          "type": "tuple"
        }
      ],
      "name": "MessageSent",
      "type": "event"
    },
    {
      "anonymous": false,
      "inputs": [
        {
          "indexed": false,
          "internalType": "uint8",
          "name": "method",
          "type": "uint8"
        }
      ],
      "name": "MsgReceived",
      "type": "event"
    },
    {
      "anonymous": false,
      "inputs": [
        {
          "indexed": true,
          "internalType": "address",
          "name": "previousOwner",
          "type": "address"
        },
        {
          "indexed": true,
          "internalType": "address",
          "name": "newOwner",
          "type": "address"
        }
      ],
      "name": "OwnershipTransferred",
      "type": "event"
    },
    {
      "anonymous": false,
      "inputs": [
        {
          "indexed": false,
          "internalType": "address",
          "name": "account",
          "type": "address"
        }
      ],
      "name": "Paused",
      "type": "event"
    },
    {
      "anonymous": false,
      "inputs": [
        {
          "indexed": false,
          "internalType": "uint32",
          "name": "eid",
          "type": "uint32"
        },
        {
          "indexed": false,
          "internalType": "bytes32",
          "name": "peer",
          "type": "bytes32"
        }
      ],
      "name": "PeerSet",
      "type": "event"
    },
    {
      "anonymous": false,
      "inputs": [],
      "name": "Ping",
      "type": "event"
    },
    {
      "anonymous": false,
      "inputs": [],
      "name": "Pong",
      "type": "event"
    },
    {
      "anonymous": false,
      "inputs": [
        {
          "components": [
            {
              "internalType": "uint32",
              "name": "srcEid",
              "type": "uint32"
            },
            {
              "internalType": "bytes32",
              "name": "sender",
              "type": "bytes32"
            },
            {
              "internalType": "uint64",
              "name": "nonce",
              "type": "uint64"
            }
          ],
          "indexed": false,
          "internalType": "struct Origin",
          "name": "_origin",
          "type": "tuple"
        },
        {
          "indexed": false,
          "internalType": "bytes32",
          "name": "_guid",
          "type": "bytes32"
        }
      ],
      "name": "ReceiveMesage",
      "type": "event"
    },
    {
      "anonymous": false,
      "inputs": [
        {
          "indexed": false,
          "internalType": "address",
          "name": "account",
          "type": "address"
        }
      ],
      "name": "Unpaused",
      "type": "event"
    },
    {
      "anonymous": false,
      "inputs": [
        {
          "indexed": true,
          "internalType": "address",
          "name": "implementation",
          "type": "address"
        }
      ],
      "name": "Upgraded",
      "type": "event"
    },
    {
      "inputs": [],
      "name": "UPGRADE_INTERFACE_VERSION",
      "outputs": [
        {
          "internalType": "string",
          "name": "",
          "type": "string"
        }
      ],
      "stateMutability": "view",
      "type": "function"
    },
    {
      "inputs": [
        {
          "internalType": "uint256",
          "name": "_chainId",
          "type": "uint256"
        },
        {
          "internalType": "uint32",
          "name": "_eid",
          "type": "uint32"
        }
      ],
      "name": "addChainIdMapping",
      "outputs": [],
      "stateMutability": "nonpayable",
      "type": "function"
    },
    {
      "inputs": [
        {
          "components": [
            {
              "internalType": "uint32",
              "name": "srcEid",
              "type": "uint32"
            },
            {
              "internalType": "bytes32",
              "name": "sender",
              "type": "bytes32"
            },
            {
              "internalType": "uint64",
              "name": "nonce",
              "type": "uint64"
            }
          ],
          "internalType": "struct Origin",
          "name": "origin",
          "type": "tuple"
        }
      ],
      "name": "allowInitializePath",
      "outputs": [
        {
          "internalType": "bool",
          "name": "",
          "type": "bool"
        }
      ],
      "stateMutability": "view",
      "type": "function"
    },
    {
      "inputs": [],
      "name": "ccManager",
      "outputs": [
        {
          "internalType": "address",
          "name": "",
          "type": "address"
        }
      ],
      "stateMutability": "view",
      "type": "function"
    },
    {
      "inputs": [
        {
          "internalType": "uint256",
          "name": "",
          "type": "uint256"
        }
      ],
      "name": "chainId2Eid",
      "outputs": [
        {
          "internalType": "uint32",
          "name": "",
          "type": "uint32"
        }
      ],
      "stateMutability": "view",
      "type": "function"
    },
    {
      "inputs": [
        {
          "internalType": "uint32",
          "name": "_eid",
          "type": "uint32"
        },
        {
          "internalType": "uint16",
          "name": "_msgType",
          "type": "uint16"
        },
        {
          "internalType": "bytes",
          "name": "_extraOptions",
          "type": "bytes"
        }
      ],
      "name": "combineOptions",
      "outputs": [
        {
          "internalType": "bytes",
          "name": "",
          "type": "bytes"
        }
      ],
      "stateMutability": "view",
      "type": "function"
    },
    {
      "inputs": [
        {
          "internalType": "uint32",
          "name": "",
          "type": "uint32"
        }
      ],
      "name": "eid2ChainId",
      "outputs": [
        {
          "internalType": "uint256",
          "name": "",
          "type": "uint256"
        }
      ],
      "stateMutability": "view",
      "type": "function"
    },
    {
      "inputs": [],
      "name": "endpoint",
      "outputs": [
        {
          "internalType": "contract ILayerZeroEndpointV2",
          "name": "",
          "type": "address"
        }
      ],
      "stateMutability": "view",
      "type": "function"
    },
    {
      "inputs": [
        {
          "internalType": "uint32",
          "name": "eid",
          "type": "uint32"
        },
        {
          "internalType": "uint16",
          "name": "msgType",
          "type": "uint16"
        }
      ],
      "name": "enforcedOptions",
      "outputs": [
        {
          "internalType": "bytes",
          "name": "enforcedOption",
          "type": "bytes"
        }
      ],
      "stateMutability": "view",
      "type": "function"
    },
    {
      "inputs": [
        {
          "components": [
            {
              "internalType": "uint8",
              "name": "method",
              "type": "uint8"
            },
            {
              "internalType": "uint8",
              "name": "option",
              "type": "uint8"
            },
            {
              "internalType": "uint8",
              "name": "payloadDataType",
              "type": "uint8"
            },
            {
              "internalType": "address",
              "name": "srcCrossChainManager",
              "type": "address"
            },
            {
              "internalType": "address",
              "name": "dstCrossChainManager",
              "type": "address"
            },
            {
              "internalType": "uint256",
              "name": "srcChainId",
              "type": "uint256"
            },
            {
              "internalType": "uint256",
              "name": "dstChainId",
              "type": "uint256"
            }
          ],
          "internalType": "struct OrderlyCrossChainMessage.MessageV1",
          "name": "data",
          "type": "tuple"
        },
        {
          "internalType": "bytes",
          "name": "payload",
          "type": "bytes"
        }
      ],
      "name": "estimateGasFee",
      "outputs": [
        {
          "internalType": "uint256",
          "name": "",
          "type": "uint256"
        }
      ],
      "stateMutability": "view",
      "type": "function"
    },
    {
      "inputs": [
        {
          "internalType": "uint8",
          "name": "_method",
          "type": "uint8"
        }
      ],
      "name": "getLzOption",
      "outputs": [
        {
          "internalType": "bytes",
          "name": "",
          "type": "bytes"
        }
      ],
      "stateMutability": "view",
      "type": "function"
    },
    {
      "inputs": [
        {
          "internalType": "address",
          "name": "_lzEndpoint",
          "type": "address"
        },
        {
          "internalType": "address",
          "name": "_delegate",
          "type": "address"
        }
      ],
      "name": "initialize",
      "outputs": [],
      "stateMutability": "nonpayable",
      "type": "function"
    },
    {
      "inputs": [
        {
          "components": [
            {
              "internalType": "uint32",
              "name": "srcEid",
              "type": "uint32"
            },
            {
              "internalType": "bytes32",
              "name": "sender",
              "type": "bytes32"
            },
            {
              "internalType": "uint64",
              "name": "nonce",
              "type": "uint64"
            }
          ],
          "internalType": "struct Origin",
          "name": "",
          "type": "tuple"
        },
        {
          "internalType": "bytes",
          "name": "",
          "type": "bytes"
        },
        {
          "internalType": "address",
          "name": "_sender",
          "type": "address"
        }
      ],
      "name": "isComposeMsgSender",
      "outputs": [
        {
          "internalType": "bool",
          "name": "",
          "type": "bool"
        }
      ],
      "stateMutability": "view",
      "type": "function"
    },
    {
      "inputs": [
        {
          "internalType": "uint8",
          "name": "",
          "type": "uint8"
        }
      ],
      "name": "lzOptions",
      "outputs": [
        {
          "internalType": "uint128",
          "name": "lzGas",
          "type": "uint128"
        },
        {
          "internalType": "uint128",
          "name": "lzValue",
          "type": "uint128"
        }
      ],
      "stateMutability": "view",
      "type": "function"
    },
    {
      "inputs": [
        {
          "components": [
            {
              "internalType": "uint32",
              "name": "srcEid",
              "type": "uint32"
            },
            {
              "internalType": "bytes32",
              "name": "sender",
              "type": "bytes32"
            },
            {
              "internalType": "uint64",
              "name": "nonce",
              "type": "uint64"
            }
          ],
          "internalType": "struct Origin",
          "name": "_origin",
          "type": "tuple"
        },
        {
          "internalType": "bytes32",
          "name": "_guid",
          "type": "bytes32"
        },
        {
          "internalType": "bytes",
          "name": "_message",
          "type": "bytes"
        },
        {
          "internalType": "address",
          "name": "_executor",
          "type": "address"
        },
        {
          "internalType": "bytes",
          "name": "_extraData",
          "type": "bytes"
        }
      ],
      "name": "lzReceive",
      "outputs": [],
      "stateMutability": "payable",
      "type": "function"
    },
    {
      "inputs": [
        {
          "internalType": "uint32",
          "name": "_srcEid",
          "type": "uint32"
        },
        {
          "internalType": "bytes32",
          "name": "_sender",
          "type": "bytes32"
        }
      ],
      "name": "nextNonce",
      "outputs": [
        {
          "internalType": "uint64",
          "name": "",
          "type": "uint64"
        }
      ],
      "stateMutability": "view",
      "type": "function"
    },
    {
      "inputs": [
        {
          "internalType": "uint32",
          "name": "",
          "type": "uint32"
        },
        {
          "internalType": "bytes32",
          "name": "",
          "type": "bytes32"
        }
      ],
      "name": "nonce",
      "outputs": [
        {
          "internalType": "uint64",
          "name": "",
          "type": "uint64"
        }
      ],
      "stateMutability": "view",
      "type": "function"
    },
    {
      "inputs": [],
      "name": "oAppVersion",
      "outputs": [
        {
          "internalType": "uint64",
          "name": "senderVersion",
          "type": "uint64"
        },
        {
          "internalType": "uint64",
          "name": "receiverVersion",
          "type": "uint64"
        }
      ],
      "stateMutability": "pure",
      "type": "function"
    },
    {
      "inputs": [],
      "name": "owner",
      "outputs": [
        {
          "internalType": "address",
          "name": "",
          "type": "address"
        }
      ],
      "stateMutability": "view",
      "type": "function"
    },
    {
      "inputs": [],
      "name": "pause",
      "outputs": [],
      "stateMutability": "nonpayable",
      "type": "function"
    },
    {
      "inputs": [],
      "name": "paused",
      "outputs": [
        {
          "internalType": "bool",
          "name": "",
          "type": "bool"
        }
      ],
      "stateMutability": "view",
      "type": "function"
    },
    {
      "inputs": [
        {
          "internalType": "uint32",
          "name": "eid",
          "type": "uint32"
        }
      ],
      "name": "peers",
      "outputs": [
        {
          "internalType": "bytes32",
          "name": "peer",
          "type": "bytes32"
        }
      ],
      "stateMutability": "view",
      "type": "function"
    },
    {
      "inputs": [
        {
          "internalType": "uint256",
          "name": "dstChainId",
          "type": "uint256"
        }
      ],
      "name": "pingPong",
      "outputs": [],
      "stateMutability": "nonpayable",
      "type": "function"
    },
    {
      "inputs": [],
      "name": "proxiableUUID",
      "outputs": [
        {
          "internalType": "bytes32",
          "name": "",
          "type": "bytes32"
        }
      ],
      "stateMutability": "view",
      "type": "function"
    },
    {
      "inputs": [],
      "name": "renounceOwnership",
      "outputs": [],
      "stateMutability": "nonpayable",
      "type": "function"
    },
    {
      "inputs": [
        {
          "components": [
            {
              "internalType": "uint8",
              "name": "method",
              "type": "uint8"
            },
            {
              "internalType": "uint8",
              "name": "option",
              "type": "uint8"
            },
            {
              "internalType": "uint8",
              "name": "payloadDataType",
              "type": "uint8"
            },
            {
              "internalType": "address",
              "name": "srcCrossChainManager",
              "type": "address"
            },
            {
              "internalType": "address",
              "name": "dstCrossChainManager",
              "type": "address"
            },
            {
              "internalType": "uint256",
              "name": "srcChainId",
              "type": "uint256"
            },
            {
              "internalType": "uint256",
              "name": "dstChainId",
              "type": "uint256"
            }
          ],
          "internalType": "struct OrderlyCrossChainMessage.MessageV1",
          "name": "data",
          "type": "tuple"
        },
        {
          "internalType": "bytes",
          "name": "payload",
          "type": "bytes"
        }
      ],
      "name": "sendMessage",
      "outputs": [],
      "stateMutability": "payable",
      "type": "function"
    },
    {
      "inputs": [
        {
          "components": [
            {
              "internalType": "uint8",
              "name": "method",
              "type": "uint8"
            },
            {
              "internalType": "uint8",
              "name": "option",
              "type": "uint8"
            },
            {
              "internalType": "uint8",
              "name": "payloadDataType",
              "type": "uint8"
            },
            {
              "internalType": "address",
              "name": "srcCrossChainManager",
              "type": "address"
            },
            {
              "internalType": "address",
              "name": "dstCrossChainManager",
              "type": "address"
            },
            {
              "internalType": "uint256",
              "name": "srcChainId",
              "type": "uint256"
            },
            {
              "internalType": "uint256",
              "name": "dstChainId",
              "type": "uint256"
            }
          ],
          "internalType": "struct OrderlyCrossChainMessage.MessageV1",
          "name": "data",
          "type": "tuple"
        },
        {
          "internalType": "bytes",
          "name": "payload",
          "type": "bytes"
        }
      ],
      "name": "sendMessageWithFee",
      "outputs": [],
      "stateMutability": "payable",
      "type": "function"
    },
    {
      "inputs": [
        {
          "internalType": "address",
          "name": "refundReceiver",
          "type": "address"
        },
        {
          "components": [
            {
              "internalType": "uint8",
              "name": "method",
              "type": "uint8"
            },
            {
              "internalType": "uint8",
              "name": "option",
              "type": "uint8"
            },
            {
              "internalType": "uint8",
              "name": "payloadDataType",
              "type": "uint8"
            },
            {
              "internalType": "address",
              "name": "srcCrossChainManager",
              "type": "address"
            },
            {
              "internalType": "address",
              "name": "dstCrossChainManager",
              "type": "address"
            },
            {
              "internalType": "uint256",
              "name": "srcChainId",
              "type": "uint256"
            },
            {
              "internalType": "uint256",
              "name": "dstChainId",
              "type": "uint256"
            }
          ],
          "internalType": "struct OrderlyCrossChainMessage.MessageV1",
          "name": "data",
          "type": "tuple"
        },
        {
          "internalType": "bytes",
          "name": "payload",
          "type": "bytes"
        }
      ],
      "name": "sendMessageWithFeeRefund",
      "outputs": [],
      "stateMutability": "payable",
      "type": "function"
    },
    {
      "inputs": [
        {
          "internalType": "address",
          "name": "_ccManager",
          "type": "address"
        }
      ],
      "name": "setCCManager",
      "outputs": [],
      "stateMutability": "nonpayable",
      "type": "function"
    },
    {
      "inputs": [
        {
          "internalType": "address",
          "name": "_delegate",
          "type": "address"
        }
      ],
      "name": "setDelegate",
      "outputs": [],
      "stateMutability": "nonpayable",
      "type": "function"
    },
    {
      "inputs": [
        {
          "components": [
            {
              "internalType": "uint32",
              "name": "eid",
              "type": "uint32"
            },
            {
              "internalType": "uint16",
              "name": "msgType",
              "type": "uint16"
            },
            {
              "internalType": "bytes",
              "name": "options",
              "type": "bytes"
            }
          ],
          "internalType": "struct EnforcedOptionParam[]",
          "name": "_enforcedOptions",
          "type": "tuple[]"
        }
      ],
      "name": "setEnforcedOptions",
      "outputs": [],
      "stateMutability": "nonpayable",
      "type": "function"
    },
    {
      "inputs": [
        {
          "internalType": "uint8",
          "name": "_method",
          "type": "uint8"
        },
        {
          "internalType": "uint128",
          "name": "_lzGas",
          "type": "uint128"
        },
        {
          "internalType": "uint128",
          "name": "_lzValue",
          "type": "uint128"
        }
      ],
      "name": "setMethodOption",
      "outputs": [],
      "stateMutability": "nonpayable",
      "type": "function"
    },
    {
      "inputs": [
        {
          "internalType": "uint32",
          "name": "_eid",
          "type": "uint32"
        },
        {
          "internalType": "bytes32",
          "name": "_peer",
          "type": "bytes32"
        }
      ],
      "name": "setPeer",
      "outputs": [],
      "stateMutability": "nonpayable",
      "type": "function"
    },
    {
      "inputs": [
        {
          "internalType": "uint32[]",
          "name": "_eids",
          "type": "uint32[]"
        },
        {
          "internalType": "bytes32[]",
          "name": "_peers",
          "type": "bytes32[]"
        }
      ],
      "name": "setPeers",
      "outputs": [],
      "stateMutability": "nonpayable",
      "type": "function"
    },
    {
      "inputs": [
        {
          "internalType": "address",
          "name": "newOwner",
          "type": "address"
        }
      ],
      "name": "transferOwnership",
      "outputs": [],
      "stateMutability": "nonpayable",
      "type": "function"
    },
    {
      "inputs": [],
      "name": "unpause",
      "outputs": [],
      "stateMutability": "nonpayable",
      "type": "function"
    },
    {
      "inputs": [
        {
          "internalType": "address",
          "name": "newImplementation",
          "type": "address"
        },
        {
          "internalType": "bytes",
          "name": "data",
          "type": "bytes"
        }
      ],
      "name": "upgradeToAndCall",
      "outputs": [],
      "stateMutability": "payable",
      "type": "function"
    },
    {
      "inputs": [
        {
          "internalType": "address payable",
          "name": "to",
          "type": "address"
        },
        {
          "internalType": "uint256",
          "name": "amount",
          "type": "uint256"
        }
      ],
      "name": "withdrawNativeToken",
      "outputs": [],
      "stateMutability": "nonpayable",
      "type": "function"
    },
    {
      "inputs": [
        {
          "internalType": "address",
          "name": "token",
          "type": "address"
        },
        {
          "internalType": "address",
          "name": "to",
          "type": "address"
        },
        {
          "internalType": "uint256",
          "name": "amount",
          "type": "uint256"
        }
      ],
      "name": "withdrawToken",
      "outputs": [],
      "stateMutability": "nonpayable",
      "type": "function"
    },
    {
      "stateMutability": "payable",
      "type": "receive"
    }
  ],
  "transactionHash": "0xd08a8d5a0449c7a1f22ccf3b22ccd0b46bbdb552e8050060d18fbbf5a3044e43",
  "args": [],
  "numDeployments": 1,
  "solcInputHash": "29c704a93f0ff050fe8a961f2b6fee02",
  "bytecode": "0x60a0604052306080523480156200001557600080fd5b506200002062000026565b620000da565b7ff0c57e16840df040f15088dc2f81fe391c3923bec73e23a9662efc9c229c6a00805468010000000000000000900460ff1615620000775760405163f92ee8a960e01b815260040160405180910390fd5b80546001600160401b0390811614620000d75780546001600160401b0319166001600160401b0390811782556040519081527fc7f505b2f371ae2175ee4913f4499e1f2633a7b5936321eed1cdaeb6115181d29060200160405180910390a15b50565b6080516136ef62000104600039600081816117e701528181611810015261195101526136ef6000f3fe6080604052600436106102345760003560e01c80637d25a05e1161012e578063b223331c116100ab578063ca5eb5e11161006f578063ca5eb5e11461075a578063dab9d46f1461077a578063f2fde38b1461079a578063f5a4fff5146107ba578063ff7bd03d146107cd57600080fd5b8063b223331c1461067e578063b98bd070146106ac578063bb0b6a53146106cc578063bc70b354146106f9578063bf063b811461071957600080fd5b80638da5cb5b116100f25780638da5cb5b1461057c578063904b25eb146105b95780639dd118261461061a578063a1e3a4bd1461063a578063ad3cb1cc1461064d57600080fd5b80637d25a05e146104db57806382413eac146105135780638456cb5914610533578063884fd85e146105485780638aabaa9d1461055b57600080fd5b80634f1ef286116101bc5780635c975abb116101805780635c975abb1461041d5780635e280f111461044e578063641df3f914610486578063715018a6146104a657806373a1f1d5146104bb57600080fd5b80634f1ef2861461035157806352d1902d14610364578063536c6bfa146103875780635535d461146103a757806358851ca1146103d457600080fd5b80633772df58116102035780633772df58146102bc5780633d796f87146102dc5780633f4ba83a146102fc578063485cc955146103115780634a51e1071461033157600080fd5b806301e336671461024057806313137d651461026257806317442b70146102755780633400288b1461029c57600080fd5b3661023b57005b600080fd5b34801561024c57600080fd5b5061026061025b36600461261f565b6107ed565b005b6102606102703660046126ba565b61086e565b34801561028157600080fd5b50604080516001815260026020820152015b60405180910390f35b3480156102a857600080fd5b506102606102b7366004612772565b610910565b3480156102c857600080fd5b506102606102d73660046127e0565b610926565b3480156102e857600080fd5b506102606102f736600461284b565b6109df565b34801561030857600080fd5b50610260610a0a565b34801561031d57600080fd5b5061026061032c366004612868565b610a1c565b34801561033d57600080fd5b5061026061034c3660046128a1565b610b2b565b61026061035f3660046129c7565b610c29565b34801561037057600080fd5b50610379610c44565b604051908152602001610293565b34801561039357600080fd5b506102606103a2366004612a16565b610c61565b3480156103b357600080fd5b506103c76103c2366004612a46565b610d4a565b6040516102939190612ac9565b3480156103e057600080fd5b506104086103ef3660046128a1565b61012f6020526000908152604090205463ffffffff1681565b60405163ffffffff9091168152602001610293565b34801561042957600080fd5b5060008051602061369a8339815191525460ff165b6040519015158152602001610293565b34801561045a57600080fd5b5060005461046e906001600160a01b031681565b6040516001600160a01b039091168152602001610293565b34801561049257600080fd5b506103796104a1366004612b7c565b610def565b3480156104b257600080fd5b50610260610e45565b3480156104c757600080fd5b506103c76104d6366004612bb5565b610e57565b3480156104e757600080fd5b506104fb6104f6366004612772565b610ed5565b6040516001600160401b039091168152602001610293565b34801561051f57600080fd5b5061043e61052e366004612bd2565b610f11565b34801561053f57600080fd5b50610260610f26565b610260610556366004612b7c565b610f36565b34801561056757600080fd5b506101315461046e906001600160a01b031681565b34801561058857600080fd5b507f9016d09d72d40fdae2fd8ceac6b6234c7706214fd39c1cd1e609a0528c199300546001600160a01b031661046e565b3480156105c557600080fd5b506105fa6105d4366004612bb5565b60fe602052600090815260409020546001600160801b0380821691600160801b90041682565b604080516001600160801b03938416815292909116602083015201610293565b34801561062657600080fd5b50610260610635366004612c4f565b610f7d565b610260610648366004612b7c565b610fcf565b34801561065957600080fd5b506103c7604051806040016040528060058152602001640352e302e360dc1b81525081565b34801561068a57600080fd5b50610379610699366004612c94565b6101306020526000908152604090205481565b3480156106b857600080fd5b506102606106c7366004612caf565b611036565b3480156106d857600080fd5b506103796106e7366004612c94565b60016020526000908152604090205481565b34801561070557600080fd5b506103c7610714366004612ce4565b611050565b34801561072557600080fd5b506104fb610734366004612772565b60fd6020908152600092835260408084209091529082529020546001600160401b031681565b34801561076657600080fd5b5061026061077536600461284b565b6111f8565b34801561078657600080fd5b50610260610795366004612d38565b61125b565b3480156107a657600080fd5b506102606107b536600461284b565b611298565b6102606107c8366004612d5b565b6112d6565b3480156107d957600080fd5b5061043e6107e8366004612dbd565b6113dc565b6107f5611412565b60405163a9059cbb60e01b81526001600160a01b0383811660048301526024820183905284169063a9059cbb906044016020604051808303816000875af1158015610844573d6000803e3d6000fd5b505050506040513d601f19601f820116820180604052508101906108689190612dd9565b50505050565b6000546001600160a01b031633146108a0576040516391ac5e4f60e01b81523360048201526024015b60405180910390fd5b602087018035906108ba906108b5908a612c94565b61146d565b146108f8576108cc6020880188612c94565b60405163309afaf360e21b815263ffffffff909116600482015260208801356024820152604401610897565b610907878787878787876114a9565b50505050505050565b610918611412565b610922828261166b565b5050565b61092e611412565b82811461097d5760405162461bcd60e51b815260206004820152601e60248201527f4f417070436f72653a20496e76616c696420696e707574206c656e67746800006044820152606401610897565b60005b838110156109d8576109d085858381811061099d5761099d612dfb565b90506020020160208101906109b29190612c94565b8484848181106109c4576109c4612dfb565b9050602002013561166b565b600101610980565b5050505050565b6109e7611412565b61013180546001600160a01b0319166001600160a01b0392909216919091179055565b610a12611412565b610a1a6116c0565b565b7ff0c57e16840df040f15088dc2f81fe391c3923bec73e23a9662efc9c229c6a008054600160401b810460ff1615906001600160401b0316600081158015610a615750825b90506000826001600160401b03166001148015610a7d5750303b155b905081158015610a8b575080155b15610aa95760405163f92ee8a960e01b815260040160405180910390fd5b845467ffffffffffffffff191660011785558315610ad357845460ff60401b1916600160401b1785555b610add8787611721565b831561090757845460ff60401b19168555604051600181527fc7f505b2f371ae2175ee4913f4499e1f2633a7b5936321eed1cdaeb6115181d29060200160405180910390a150505050505050565b610b33611412565b6040805160e081019091526000908060045b60ff168152602001600060ff168152602001600060ff16815260200160006001600160a01b0316815260200160006001600160a01b031681526020014681526020018381525090506000610ba88260405180602001604052806000815250610def565b90506000610bc78230856040518060200160405280600081525061174c565b60408051825181526020808401516001600160401b031681830152838301518051838501520151606082015290519192507f79e85cff32545bb6a42b53e5178562a9e9d13e273cb20196f2e8223c6ac96f78919081900360800190a150505050565b610c316117dc565b610c3a82611881565b6109228282611889565b6000610c4e611946565b5060008051602061367a83398151915290565b610c69611412565b80471015610cb05760405162461bcd60e51b8152602060048201526014602482015273496e73756666696369656e742062616c616e636560601b6044820152606401610897565b6000826001600160a01b03168260405160006040518083038185875af1925050503d8060008114610cfd576040519150601f19603f3d011682016040523d82523d6000602084013e610d02565b606091505b5050905080610d455760405162461bcd60e51b815260206004820152600f60248201526e151c985b9cd9995c8819985a5b1959608a1b6044820152606401610897565b505050565b60ca60209081526000928352604080842090915290825290208054610d6e90612e11565b80601f0160208091040260200160405190810160405280929190818152602001828054610d9a90612e11565b8015610de75780601f10610dbc57610100808354040283529160200191610de7565b820191906000526020600020905b815481529060010190602001808311610dca57829003601f168201915b505050505081565b600080610dfc848461198f565b60c0850151600090815261012f6020526040812054865192935063ffffffff1691610e2690610e57565b90506000610e3783858460006119bb565b519450505050505b92915050565b610e4d611412565b610a1a6000611a7a565b60ff8116600090815260fe60205260408120546060916001600160801b0380831692600160801b90041690829003610e9057622dc6c091505b6000610ecc610ec78484610ec060408051600360f01b602082015281516002818303018152602290910190915290565b9190611aeb565b611b53565b95945050505050565b63ffffffff8216600090815260fd60209081526040808320848452909152812054610f0a906001600160401b03166001612e5b565b9392505050565b6001600160a01b03811630145b949350505050565b610f2e611412565b610a1a611b9b565b610131546001600160a01b03163314610f615760405162461bcd60e51b815260040161089790612e7b565b6000610f6d8383610def565b90506000610bc78230868661174c565b610f85611412565b6040805180820182526001600160801b039384168152918316602080840191825260ff909516600090815260fe9095529320905192518216600160801b0292909116919091179055565b610131546001600160a01b03163314610ffa5760405162461bcd60e51b815260040161089790612e7b565b60006110068383610def565b9050803410156110285760405162461bcd60e51b815260040161089790612ed8565b6000610bc78230868661174c565b61103e611412565b61092261104b8284612f19565b611be4565b63ffffffff8416600090815260ca6020908152604080832061ffff8716845290915281208054606092919061108490612e11565b80601f01602080910402602001604051908101604052809291908181526020018280546110b090612e11565b80156110fd5780601f106110d2576101008083540402835291602001916110fd565b820191906000526020600020905b8154815290600101906020018083116110e057829003601f168201915b50505050509050805160000361114d5783838080601f016020809104026020016040519081016040528093929190818152602001838380828437600092019190915250929450610f1e9350505050565b600083900361115d579050610f1e565b600283106111db576111a484848080601f016020809104026020016040519081016040528093929190818152602001838380828437600092019190915250611ceb92505050565b806111b28460028188612fee565b6040516020016111c493929190613018565b604051602081830303815290604052915050610f1e565b8383604051639a6d49cd60e01b8152600401610897929190613040565b611200611412565b60005460405163ca5eb5e160e01b81526001600160a01b0383811660048301529091169063ca5eb5e190602401600060405180830381600087803b15801561124757600080fd5b505af11580156109d8573d6000803e3d6000fd5b611263611412565b600082815261012f60209081526040808320805463ffffffff90951663ffffffff199095168517905592825261013090522055565b6112a0611412565b6001600160a01b0381166112ca57604051631e4fbdf760e01b815260006004820152602401610897565b6112d381611a7a565b50565b610131546001600160a01b031633146113015760405162461bcd60e51b815260040161089790612e7b565b60c0820151600090815261012f602052604081205463ffffffff169081900361133c5760405162461bcd60e51b81526004016108979061306f565b60006113488484610def565b90508034101561136a5760405162461bcd60e51b815260040161089790612ed8565b60006113788287878761174c565b60408051825181526020808401516001600160401b031681830152838301518051838501520151606082015290519192507f79e85cff32545bb6a42b53e5178562a9e9d13e273cb20196f2e8223c6ac96f78919081900360800190a1505050505050565b60006020820180359060019083906113f49086612c94565b63ffffffff1681526020810191909152604001600020541492915050565b336114447f9016d09d72d40fdae2fd8ceac6b6234c7706214fd39c1cd1e609a0528c199300546001600160a01b031690565b6001600160a01b031614610a1a5760405163118cdaa760e01b8152336004820152602401610897565b63ffffffff811660009081526001602052604081205480610e3f5760405163f6ff4fb760e01b815263ffffffff84166004820152602401610897565b8660fd60006114bb6020840184612c94565b63ffffffff168152602080820192909252604090810160009081208484013582529092529020546114f6906001600160401b03166001612e5b565b6001600160401b031661150f60608301604084016130c9565b6001600160401b0316146115655760405162461bcd60e51b815260206004820181905260248201527f43726f7373436861696e52656c617956323a20696e76616c6964206e6f6e63656044820152606401610897565b60fd60006115766020840184612c94565b63ffffffff16815260208082019290925260409081016000908120848401358252909252812080546001600160401b0316916115b1836130e6565b91906101000a8154816001600160401b0302191690836001600160401b031602179055505060008061161888888080601f016020809104026020016040519081016040528093929190818152602001838380828437600092019190915250611d1792505050565b915091506116268282611d75565b7f4b08b1c97bde02a07f7bd1cee002766e4e78f8d78ae02c1a8fb6db898da0dd948a8a60405161165792919061310c565b60405180910390a150505050505050505050565b63ffffffff8216600081815260016020908152604091829020849055815192835282018390527f238399d427b947898edb290f5ff0f9109849b1c3ba196a42e35f00c50a54b98b910160405180910390a15050565b6116c8611e5f565b60008051602061369a833981519152805460ff191681557f5db9ee0a495bf2e6ff9c91a7834c1ba4fdd244a5e8aa4e537bd38aeae4b073aa335b6040516001600160a01b0390911681526020015b60405180910390a150565b611729611e8f565b6117338282611ed8565b61173b611f51565b611743611f59565b61092281611f69565b6117546125c3565b60c0830151600090815261012f602052604081205463ffffffff169081900361178f5760405162461bcd60e51b81526004016108979061306f565b600061179b858561198f565b905060006117ac8660000151610e57565b90506117d083838360405180604001604052808d815260200160008152508b611f7a565b98975050505050505050565b306001600160a01b037f000000000000000000000000000000000000000000000000000000000000000016148061186357507f00000000000000000000000000000000000000000000000000000000000000006001600160a01b031661185760008051602061367a833981519152546001600160a01b031690565b6001600160a01b031614155b15610a1a5760405163703e46dd60e11b815260040160405180910390fd5b6112d3611412565b816001600160a01b03166352d1902d6040518163ffffffff1660e01b8152600401602060405180830381865afa9250505080156118e3575060408051601f3d908101601f191682019092526118e091810190613155565b60015b61190b57604051634c9c8ce360e01b81526001600160a01b0383166004820152602401610897565b60008051602061367a833981519152811461193c57604051632a87526960e21b815260048101829052602401610897565b610d45838361206d565b306001600160a01b037f00000000000000000000000000000000000000000000000000000000000000001614610a1a5760405163703e46dd60e11b815260040160405180910390fd5b606082826040516020016119a492919061316e565b604051602081830303815290604052905092915050565b60408051808201909152600080825260208201526000546040805160a0810190915263ffffffff871681526001600160a01b039091169063ddc28c589060208101611a058961146d565b8152602001878152602001868152602001851515815250306040518363ffffffff1660e01b8152600401611a3a9291906131dc565b6040805180830381865afa158015611a56573d6000803e3d6000fd5b505050506040513d601f19601f82011682018060405250810190610ecc91906132a3565b7f9016d09d72d40fdae2fd8ceac6b6234c7706214fd39c1cd1e609a0528c19930080546001600160a01b031981166001600160a01b03848116918217845560405192169182907f8be0079c531659141344cd1fd0a4f28419497f9722a3daafe3b4186f6b6457e090600090a3505050565b6060836003611afb8260006120c3565b61ffff1614611b2f57611b0f8160006120c3565b604051633a51740d60e01b815261ffff9091166004820152602401610897565b6000611b3b8585612120565b9050611b4986600183612187565b9695505050505050565b6060816003611b638260006120c3565b61ffff1614611b7757611b0f8160006120c3565b611b9283600460405180602001604052806000815250612187565b91505b50919050565b611ba36121f2565b60008051602061369a833981519152805460ff191660011781557f62e78cea01bee320cd4e420270b5ea74000d11b0c9f74754ebdbfc544b05a25833611702565b60005b8151811015611cbb57611c16828281518110611c0557611c05612dfb565b602002602001015160400151611ceb565b818181518110611c2857611c28612dfb565b60200260200101516040015160ca6000848481518110611c4a57611c4a612dfb565b60200260200101516000015163ffffffff1663ffffffff1681526020019081526020016000206000848481518110611c8457611c84612dfb565b60200260200101516020015161ffff1661ffff1681526020019081526020016000209081611cb29190613307565b50600101611be7565b507fbe4864a8e820971c0247f5992e2da559595f7bf076a21cb5928d443d2a13b6748160405161171691906133c6565b600281015161ffff81166003146109225781604051639a6d49cd60e01b81526004016108979190612ac9565b6040805160e081018252600080825260208201819052918101829052606081018290526080810182905260a0810182905260c0810191909152606060008084806020019051810190611d6991906134a1565b90969095509350505050565b815160ff1660031901611dbc57611d8f8260a00151612223565b6040517f4d015fcc2a20c24d7be893b3a525eac864b5a53a5f88ef7201a600465c73314e90600090a15050565b815160ff1660021901611df6576040517fca6e822df923f741dfe968d15d80a18abd25bd1e748bcb9ad81fea5bbb7386af90600090a15050565b610131546040516371b3dcb360e01b81526001600160a01b03909116906371b3dcb390611e29908590859060040161316e565b600060405180830381600087803b158015611e4357600080fd5b505af1158015611e57573d6000803e3d6000fd5b505050505050565b60008051602061369a8339815191525460ff16610a1a57604051638dfc202b60e01b815260040160405180910390fd5b7ff0c57e16840df040f15088dc2f81fe391c3923bec73e23a9662efc9c229c6a0054600160401b900460ff16610a1a57604051631afcd79f60e31b815260040160405180910390fd5b611ee0611e8f565b600080546001600160a01b0319166001600160a01b03848116919091179091558116611f1f57604051632d618d8160e21b815260040160405180910390fd5b60005460405163ca5eb5e160e01b81526001600160a01b0383811660048301529091169063ca5eb5e190602401611e29565b610a1a611e8f565b611f61611e8f565b610a1a612239565b611f71611e8f565b6112d38161225a565b611f826125c3565b6000611f918460000151612262565b602085015190915015611fab57611fab8460200151612296565b6000546040805160a0810190915263ffffffff891681526001600160a01b0390911690632637a45090839060208101611fe38c61146d565b81526020018a815260200189815260200160008960200151111515815250866040518463ffffffff1660e01b815260040161201f9291906131dc565b60806040518083038185885af115801561203d573d6000803e3d6000fd5b50505050506040513d601f19601f820116820180604052508101906120629190613561565b979650505050505050565b61207682612353565b6040516001600160a01b038316907fbc7cd75a20ee27fd9adebab32041f755214dbc6bffa90cc0225b39da2e5c2d3b90600090a28051156120bb57610d4582826123b8565b610922612425565b60006120d08260026135ab565b835110156121175760405162461bcd60e51b8152602060048201526014602482015273746f55696e7431365f6f75744f66426f756e647360601b6044820152606401610897565b50016002015190565b60606001600160801b0382161561216857604080516001600160801b0319608086811b8216602084015285901b16603082015201604051602081830303815290604052610f0a565b6040516001600160801b0319608085901b1660208201526030016119a4565b60608360036121978260006120c3565b61ffff16146121ab57611b0f8160006120c3565b8460016121b88551612444565b6121c39060016135be565b86866040516020016121d99594939291906135d9565b6040516020818303038152906040529150509392505050565b60008051602061369a8339815191525460ff1615610a1a5760405163d93c066560e01b815260040160405180910390fd5b6040805160e08101909152600090806003610b45565b612241611e8f565b60008051602061369a833981519152805460ff19169055565b6112a0611e8f565b6000813410801561227257508147105b15612292576040516304fb820960e51b8152346004820152602401610897565b5090565b60008060009054906101000a90046001600160a01b03166001600160a01b031663e4fe1d946040518163ffffffff1660e01b8152600401602060405180830381865afa1580156122ea573d6000803e3d6000fd5b505050506040513d601f19601f8201168201806040525081019061230e9190613640565b90506001600160a01b038116612337576040516329b99a9560e11b815260040160405180910390fd5b600054610922906001600160a01b038381169133911685612473565b806001600160a01b03163b60000361238957604051634c9c8ce360e01b81526001600160a01b0382166004820152602401610897565b60008051602061367a83398151915280546001600160a01b0319166001600160a01b0392909216919091179055565b6060600080846001600160a01b0316846040516123d5919061365d565b600060405180830381855af49150503d8060008114612410576040519150601f19603f3d011682016040523d82523d6000602084013e612415565b606091505b5091509150610ecc8583836124cd565b3415610a1a5760405163b398979f60e01b815260040160405180910390fd5b600061ffff821115612292576040516306dfcc6560e41b81526010600482015260248101839052604401610897565b604080516001600160a01b0385811660248301528416604482015260648082018490528251808303909101815260849091019091526020810180516001600160e01b03166323b872dd60e01b179052610868908590612529565b6060826124e2576124dd8261259a565b610f0a565b81511580156124f957506001600160a01b0384163b155b1561252257604051639996b31560e01b81526001600160a01b0385166004820152602401610897565b5092915050565b600080602060008451602086016000885af18061254c576040513d6000823e3d81fd5b50506000513d91508115612564578060011415612571565b6001600160a01b0384163b155b1561086857604051635274afe760e01b81526001600160a01b0385166004820152602401610897565b8051156125aa5780518082602001fd5b60405163d6bda27560e01b815260040160405180910390fd5b60405180606001604052806000801916815260200160006001600160401b03168152602001612605604051806040016040528060008152602001600081525090565b905290565b6001600160a01b03811681146112d357600080fd5b60008060006060848603121561263457600080fd5b833561263f8161260a565b9250602084013561264f8161260a565b929592945050506040919091013590565b600060608284031215611b9557600080fd5b60008083601f84011261268457600080fd5b5081356001600160401b0381111561269b57600080fd5b6020830191508360208285010111156126b357600080fd5b9250929050565b600080600080600080600060e0888a0312156126d557600080fd5b6126df8989612660565b96506060880135955060808801356001600160401b038082111561270257600080fd5b61270e8b838c01612672565b909750955060a08a013591506127238261260a565b90935060c0890135908082111561273957600080fd5b506127468a828b01612672565b989b979a50959850939692959293505050565b803563ffffffff8116811461276d57600080fd5b919050565b6000806040838503121561278557600080fd5b61278e83612759565b946020939093013593505050565b60008083601f8401126127ae57600080fd5b5081356001600160401b038111156127c557600080fd5b6020830191508360208260051b85010111156126b357600080fd5b600080600080604085870312156127f657600080fd5b84356001600160401b038082111561280d57600080fd5b6128198883890161279c565b9096509450602087013591508082111561283257600080fd5b5061283f8782880161279c565b95989497509550505050565b60006020828403121561285d57600080fd5b8135610f0a8161260a565b6000806040838503121561287b57600080fd5b82356128868161260a565b915060208301356128968161260a565b809150509250929050565b6000602082840312156128b357600080fd5b5035919050565b634e487b7160e01b600052604160045260246000fd5b60405160e081016001600160401b03811182821017156128f2576128f26128ba565b60405290565b604051606081016001600160401b03811182821017156128f2576128f26128ba565b604051601f8201601f191681016001600160401b0381118282101715612942576129426128ba565b604052919050565b60006001600160401b03821115612963576129636128ba565b50601f01601f191660200190565b600082601f83011261298257600080fd5b81356129956129908261294a565b61291a565b8181528460208386010111156129aa57600080fd5b816020850160208301376000918101602001919091529392505050565b600080604083850312156129da57600080fd5b82356129e58161260a565b915060208301356001600160401b03811115612a0057600080fd5b612a0c85828601612971565b9150509250929050565b60008060408385031215612a2957600080fd5b823561278e8161260a565b803561ffff8116811461276d57600080fd5b60008060408385031215612a5957600080fd5b612a6283612759565b9150612a7060208401612a34565b90509250929050565b60005b83811015612a94578181015183820152602001612a7c565b50506000910152565b60008151808452612ab5816020860160208601612a79565b601f01601f19169290920160200192915050565b602081526000610f0a6020830184612a9d565b60ff811681146112d357600080fd5b600060e08284031215612afd57600080fd5b612b056128d0565b90508135612b1281612adc565b81526020820135612b2281612adc565b60208201526040820135612b3581612adc565b60408201526060820135612b488161260a565b60608201526080820135612b5b8161260a565b8060808301525060a082013560a082015260c082013560c082015292915050565b6000806101008385031215612b9057600080fd5b612b9a8484612aeb565b915060e08301356001600160401b03811115612a0057600080fd5b600060208284031215612bc757600080fd5b8135610f0a81612adc565b60008060008060a08587031215612be857600080fd5b612bf28686612660565b935060608501356001600160401b03811115612c0d57600080fd5b612c1987828801612672565b9094509250506080850135612c2d8161260a565b939692955090935050565b80356001600160801b038116811461276d57600080fd5b600080600060608486031215612c6457600080fd5b8335612c6f81612adc565b9250612c7d60208501612c38565b9150612c8b60408501612c38565b90509250925092565b600060208284031215612ca657600080fd5b610f0a82612759565b60008060208385031215612cc257600080fd5b82356001600160401b03811115612cd857600080fd5b611d698582860161279c565b60008060008060608587031215612cfa57600080fd5b612d0385612759565b9350612d1160208601612a34565b925060408501356001600160401b03811115612d2c57600080fd5b61283f87828801612672565b60008060408385031215612d4b57600080fd5b82359150612a7060208401612759565b60008060006101208486031215612d7157600080fd5b8335612d7c8161260a565b9250612d8b8560208601612aeb565b91506101008401356001600160401b03811115612da757600080fd5b612db386828701612971565b9150509250925092565b600060608284031215612dcf57600080fd5b610f0a8383612660565b600060208284031215612deb57600080fd5b81518015158114610f0a57600080fd5b634e487b7160e01b600052603260045260246000fd5b600181811c90821680612e2557607f821691505b602082108103611b9557634e487b7160e01b600052602260045260246000fd5b634e487b7160e01b600052601160045260246000fd5b6001600160401b0381811683821601908082111561252257612522612e45565b60208082526039908201527f43726f7373436861696e52656c617956323a206f6e6c79204343206d616e616760408201527f65722063616e2063616c6c20746869732066756e6374696f6e00000000000000606082015260800190565b60208082526021908201527f43726f7373436861696e52656c61793a20696e73756666696369656e742066656040820152606560f81b606082015260800190565b60006001600160401b0380841115612f3357612f336128ba565b8360051b6020612f4481830161291a565b868152918501918181019036841115612f5c57600080fd5b865b84811015612fe257803586811115612f765760008081fd5b88016060368290031215612f8a5760008081fd5b612f926128f8565b612f9b82612759565b8152612fa8868301612a34565b8682015260408083013589811115612fc05760008081fd5b612fcc36828601612971565b9183019190915250845250918301918301612f5e565b50979650505050505050565b60008085851115612ffe57600080fd5b8386111561300b57600080fd5b5050820193919092039150565b6000845161302a818460208901612a79565b8201838582376000930192835250909392505050565b60208152816020820152818360408301376000818301604090810191909152601f909201601f19160101919050565b60208082526025908201527f43726f7373436861696e52656c61793a20696e76616c696420647374206368616040820152641a5b881a5960da1b606082015260800190565b6001600160401b03811681146112d357600080fd5b6000602082840312156130db57600080fd5b8135610f0a816130b4565b60006001600160401b0380831681810361310257613102612e45565b6001019392505050565b6080810163ffffffff61311e85612759565b168252602084013560208301526040840135613139816130b4565b6001600160401b03166040830152606090910191909152919050565b60006020828403121561316757600080fd5b5051919050565b600061010060ff855116835260ff602086015116602084015260ff6040860151166040840152606085015160018060a01b038082166060860152806080880151166080860152505060a085015160a084015260c085015160c08401528060e0840152610ecc81840185612a9d565b6040815263ffffffff8351166040820152602083015160608201526000604084015160a0608084015261321260e0840182612a9d565b90506060850151603f198483030160a085015261322f8282612a9d565b60809690960151151560c08501525050506001600160a01b039190911660209091015290565b60006040828403121561326757600080fd5b604051604081018181106001600160401b0382111715613289576132896128ba565b604052825181526020928301519281019290925250919050565b6000604082840312156132b557600080fd5b610f0a8383613255565b601f821115610d45576000816000526020600020601f850160051c810160208610156132e85750805b601f850160051c820191505b81811015611e57578281556001016132f4565b81516001600160401b03811115613320576133206128ba565b6133348161332e8454612e11565b846132bf565b602080601f83116001811461336957600084156133515750858301515b600019600386901b1c1916600185901b178555611e57565b600085815260208120601f198616915b8281101561339857888601518255948401946001909101908401613379565b50858210156133b65787850151600019600388901b60f8161c191681555b5050505050600190811b01905550565b600060208083018184528085518083526040925060408601915060408160051b87010184880160005b8381101561344357888303603f190185528151805163ffffffff1684528781015161ffff1688850152860151606087850181905261342f81860183612a9d565b9689019694505050908601906001016133ef565b509098975050505050505050565b805161276d8161260a565b600082601f83011261346d57600080fd5b815161347b6129908261294a565b81815284602083860101111561349057600080fd5b610f1e826020830160208701612a79565b6000808284036101008112156134b657600080fd5b60e08112156134c457600080fd5b506134cd6128d0565b83516134d881612adc565b815260208401516134e881612adc565b602082015260408401516134fb81612adc565b6040820152606084015161350e8161260a565b606082015261351f60808501613451565b608082015260a084015160a082015260c084015160c08201528092505060e08301516001600160401b0381111561355557600080fd5b612a0c8582860161345c565b60006080828403121561357357600080fd5b61357b6128f8565b82518152602083015161358d816130b4565b602082015261359f8460408501613255565b60408201529392505050565b80820180821115610e3f57610e3f612e45565b61ffff81811683821601908082111561252257612522612e45565b600086516135eb818460208b01612a79565b6001600160f81b031960f888811b82169285019283526001600160f01b031960f089901b16600184015286901b1660038201528351613631816004840160208801612a79565b01600401979650505050505050565b60006020828403121561365257600080fd5b8151610f0a8161260a565b6000825161366f818460208701612a79565b919091019291505056fe360894a13ba1a3210667c828492db98dca3e2076cc3735a920a3ca505d382bbccd5ed15c6e187e77e9aee88184c21f4f2182ab5827cb3b7e07fbedcd63f03300a26469706673582212209262ec4636b5f8efbbc9425116417a7b6b1551c6f13ed961593008a88bcfbd0d64736f6c63430008160033",
  "devdoc": {
    "details": "This is the main contract for the CrossChainRelayV2It implements the IOrderlyCrossChain interfaceIt inherits from the OAppUpgradeable and CrossChainRelayDataLayoutV2",
    "errors": {
      "AddressEmptyCode(address)": [
        {
          "details": "There's no code at `target` (it is not a contract)."
        }
      ],
      "ERC1967InvalidImplementation(address)": [
        {
          "details": "The `implementation` of the proxy is invalid."
        }
      ],
      "ERC1967NonPayable()": [
        {
          "details": "An upgrade function sees `msg.value > 0` that may be lost."
        }
      ],
      "EnforcedPause()": [
        {
          "details": "The operation failed because the contract is paused."
        }
      ],
      "ExpectedPause()": [
        {
          "details": "The operation failed because the contract is not paused."
        }
      ],
      "FailedCall()": [
        {
          "details": "A call to an address target failed. The target may have reverted."
        }
      ],
      "InvalidInitialization()": [
        {
          "details": "The contract is already initialized."
        }
      ],
      "NotInitializing()": [
        {
          "details": "The contract is not initializing."
        }
      ],
      "OwnableInvalidOwner(address)": [
        {
          "details": "The owner is not a valid owner account. (eg. `address(0)`)"
        }
      ],
      "OwnableUnauthorizedAccount(address)": [
        {
          "details": "The caller account is not authorized to perform an operation."
        }
      ],
      "SafeCastOverflowedUintDowncast(uint8,uint256)": [
        {
          "details": "Value doesn't fit in an uint of `bits` size."
        }
      ],
      "SafeERC20FailedOperation(address)": [
        {
          "details": "An operation with an ERC-20 token failed."
        }
      ],
      "UUPSUnauthorizedCallContext()": [
        {
          "details": "The call is from an unauthorized context."
        }
      ],
      "UUPSUnsupportedProxiableUUID(bytes32)": [
        {
          "details": "The storage `slot` is unsupported as a UUID."
        }
      ]
    },
    "events": {
      "Initialized(uint64)": {
        "details": "Triggered when the contract has been initialized or reinitialized."
      },
      "Paused(address)": {
        "details": "Emitted when the pause is triggered by `account`."
      },
      "ReceiveMesage((uint32,bytes32,uint64),bytes32)": {
        "params": {
          "_guid": "The guid of the message",
          "_origin": "The origin of the message"
        }
      },
      "Unpaused(address)": {
        "details": "Emitted when the pause is lifted by `account`."
      },
      "Upgraded(address)": {
        "details": "Emitted when the implementation is upgraded."
      }
    },
    "kind": "dev",
    "methods": {
      "addChainIdMapping(uint256,uint32)": {
        "params": {
          "_chainId": "The chain ID",
          "_eid": "The LayerZero EID"
        }
      },
      "allowInitializePath((uint32,bytes32,uint64))": {
        "details": "This indicates to the endpoint that the OApp has enabled msgs for this particular path to be received.This defaults to assuming if a peer has been set, its initialized. Can be overridden by the OApp if there is other logic to determine this.",
        "params": {
          "origin": "The origin information containing the source endpoint and sender address."
        },
        "returns": {
          "_0": "Whether the path has been initialized."
        }
      },
      "combineOptions(uint32,uint16,bytes)": {
        "details": "If there is an enforced lzReceive option: - {gasLimit: 200k, msg.value: 1 ether} AND a caller supplies a lzReceive option: {gasLimit: 100k, msg.value: 0.5 ether} - The resulting options will be {gasLimit: 300k, msg.value: 1.5 ether} when the message is executed on the remote lzReceive() function.This presence of duplicated options is handled off-chain in the verifier/executor.",
        "params": {
          "_eid": "The endpoint ID.",
          "_extraOptions": "Additional options passed by the caller.",
          "_msgType": "The OAPP message type."
        },
        "returns": {
          "_0": "options The combination of caller specified options AND enforced options."
        }
      },
      "estimateGasFee((uint8,uint8,uint8,address,address,uint256,uint256),bytes)": {
        "params": {
          "data": "The cross-chain meta data",
          "payload": "The payload of the cc message"
        },
        "returns": {
          "_0": "The gas fee for the cc message, in native gas token"
        }
      },
      "getLzOption(uint8)": {
        "params": {
          "_method": "The method"
        },
        "returns": {
          "_0": "The LayerZero option, if the lzGas is 0, it will use the default gas limit"
        }
      },
      "initialize(address,address)": {
        "params": {
          "_delegate": "The delegate, the owner of the contract and the delegate to the LayerZero endpoint",
          "_lzEndpoint": "The LayerZero endpoint"
        }
      },
      "isComposeMsgSender((uint32,bytes32,uint64),bytes,address)": {
        "details": "_origin The origin information containing the source endpoint and sender address.  - srcEid: The source chain endpoint ID.  - sender: The sender address on the src chain.  - nonce: The nonce of the message._message The lzReceive payload.Applications can optionally choose to implement separate composeMsg senders that are NOT the bridging layer.The default sender IS the OAppReceiver implementer.",
        "params": {
          "_sender": "The sender address."
        },
        "returns": {
          "_0": "isSender Is a valid sender."
        }
      },
      "lzReceive((uint32,bytes32,uint64),bytes32,bytes,address,bytes)": {
        "details": "Entry point for receiving messages or packets from the endpoint.Entry point for receiving msg/packet from the LayerZero endpoint.",
        "params": {
          "_executor": "The address of the executor for the received message.",
          "_extraData": "Additional arbitrary data provided by the corresponding executor.",
          "_guid": "The unique identifier for the received LayerZero message.",
          "_message": "The payload of the received message.",
          "_origin": "The origin information containing the source endpoint and sender address.  - srcEid: The source chain endpoint ID.  - sender: The sender address on the src chain.  - nonce: The nonce of the message."
        }
      },
      "nextNonce(uint32,bytes32)": {
        "params": {
          "_sender": "The sender address",
          "_srcEid": "The source endpoint ID"
        },
        "returns": {
          "_0": "The next nonce"
        }
      },
      "oAppVersion()": {
        "returns": {
          "receiverVersion": "The version of the OAppReceiver.sol implementation.",
          "senderVersion": "The version of the OAppSender.sol implementation."
        }
      },
      "owner()": {
        "details": "Returns the address of the current owner."
      },
      "paused()": {
        "details": "Returns true if the contract is paused, and false otherwise."
      },
      "pingPong(uint256)": {
        "params": {
          "dstChainId": "The destination chain ID"
        }
      },
      "proxiableUUID()": {
        "details": "Implementation of the ERC-1822 {proxiableUUID} function. This returns the storage slot used by the implementation. It is used to validate the implementation's compatibility when performing an upgrade. IMPORTANT: A proxy pointing at a proxiable contract should not be considered proxiable itself, because this risks bricking a proxy that upgrades to it, by delegating to itself until out of gas. Thus it is critical that this function revert if invoked through a proxy. This is guaranteed by the `notDelegated` modifier."
      },
      "renounceOwnership()": {
        "details": "Leaves the contract without owner. It will not be possible to call `onlyOwner` functions. Can only be called by the current owner. NOTE: Renouncing ownership will leave the contract without an owner, thereby disabling any functionality that is only available to the owner."
      },
      "sendMessage((uint8,uint8,uint8,address,address,uint256,uint256),bytes)": {
        "params": {
          "data": "The cross-chain meta data",
          "payload": "The payload of the cc message"
        }
      },
      "sendMessageWithFee((uint8,uint8,uint8,address,address,uint256,uint256),bytes)": {
        "params": {
          "data": "The cross-chain meta data",
          "payload": "The payload of the cc message"
        }
      },
      "sendMessageWithFeeRefund(address,(uint8,uint8,uint8,address,address,uint256,uint256),bytes)": {
        "params": {
          "data": "The cross-chain meta data",
          "payload": "The payload of the cc message",
          "refundReceiver": "The receiver address for the lz fee refund"
        }
      },
      "setCCManager(address)": {
        "params": {
          "_ccManager": "The manager address"
        }
      },
      "setDelegate(address)": {
        "details": "Only the owner/admin of the OApp can call this function.Provides the ability for a delegate to set configs, on behalf of the OApp, directly on the Endpoint contract.",
        "params": {
          "_delegate": "The address of the delegate to be set."
        }
      },
      "setEnforcedOptions((uint32,uint16,bytes)[])": {
        "details": "Sets the enforced options for specific endpoint and message type combinations.Only the owner/admin of the OApp can call this function.Provides a way for the OApp to enforce things like paying for PreCrime, AND/OR minimum dst lzReceive gas amounts etc.These enforced options can vary as the potential options/execution on the remote may differ as per the msgType. eg. Amount of lzReceive() gas necessary to deliver a lzCompose() message adds overhead you dont want to pay if you are only making a standard LayerZero message ie. lzReceive() WITHOUT sendCompose().",
        "params": {
          "_enforcedOptions": "An array of EnforcedOptionParam structures specifying enforced options."
        }
      },
      "setMethodOption(uint8,uint128,uint128)": {
        "params": {
          "_lzGas": "The gas limit for the transaction execution on the dst chain",
          "_lzValue": "The value to airdrop on the dst chain",
          "_method": "The method to set the gas limit for"
        }
      },
      "setPeer(uint32,bytes32)": {
        "details": "Only the owner/admin of the OApp can call this function.Indicates that the peer is trusted to send LayerZero messages to this OApp.Set this to bytes32(0) to remove the peer address.Peer is a bytes32 to accommodate non-evm chains.",
        "params": {
          "_eid": "The endpoint ID.",
          "_peer": "The address of the peer to be associated with the corresponding endpoint."
        }
      },
      "transferOwnership(address)": {
        "details": "Transfers ownership of the contract to a new account (`newOwner`). Can only be called by the current owner."
      },
      "upgradeToAndCall(address,bytes)": {
        "custom:oz-upgrades-unsafe-allow-reachable": "delegatecall",
        "details": "Upgrade the implementation of the proxy to `newImplementation`, and subsequently execute the function call encoded in `data`. Calls {_authorizeUpgrade}. Emits an {Upgraded} event."
      },
      "withdrawNativeToken(address,uint256)": {
        "params": {
          "amount": "Amount of native tokens to withdraw",
          "to": "Recipient address"
        }
      },
      "withdrawToken(address,address,uint256)": {
        "params": {
          "amount": "Amount of tokens to withdraw",
          "to": "Recipient address",
          "token": "Token address"
        }
      }
    },
    "version": 1
  },
  "userdoc": {
    "events": {
      "Ping()": {
        "notice": "Emitted when a ping message is received"
      },
      "Pong()": {
        "notice": "Emitted when a pong response is sent"
      },
      "ReceiveMesage((uint32,bytes32,uint64),bytes32)": {
        "notice": "Emitted when a message is received"
      }
    },
    "kind": "user",
    "methods": {
      "addChainIdMapping(uint256,uint32)": {
        "notice": "Adds a new chain ID mapping to LayerZero chain IDs"
      },
      "allowInitializePath((uint32,bytes32,uint64))": {
        "notice": "Checks if the path initialization is allowed based on the provided origin."
      },
      "ccManager()": {
        "notice": "Address of the cross-chain manager (Vault or Ledger) on this chain"
      },
      "chainId2Eid(uint256)": {
        "notice": "Maps native chain IDs to their corresponding Endpoint IDs"
      },
      "combineOptions(uint32,uint16,bytes)": {
        "notice": "Combines options for a given endpoint and message type."
      },
      "eid2ChainId(uint32)": {
        "notice": "Reverse mapping of Endpoint IDs to native chain IDs"
      },
      "endpoint()": {
        "notice": "Retrieves the LayerZero endpoint associated with the OApp."
      },
      "estimateGasFee((uint8,uint8,uint8,address,address,uint256,uint256),bytes)": {
        "notice": "Estimates the gas fee for a cc message"
      },
      "getLzOption(uint8)": {
        "notice": "Gets the LayerZero option for the given method"
      },
      "initialize(address,address)": {
        "notice": "Initializes the OApp"
      },
      "isComposeMsgSender((uint32,bytes32,uint64),bytes,address)": {
        "notice": "Indicates whether an address is an approved composeMsg sender to the Endpoint."
      },
      "lzOptions(uint8)": {
        "notice": "Maps message flow types to their gas limits for cross-chain operations"
      },
      "nextNonce(uint32,bytes32)": {
        "notice": "Gets the next nonce for the given source endpoint and sender address"
      },
      "nonce(uint32,bytes32)": {
        "notice": "Nonce mapping for each source endpoint and sender address"
      },
      "oAppVersion()": {
        "notice": "Retrieves the OApp version information."
      },
      "peers(uint32)": {
        "notice": "Retrieves the peer (OApp) associated with a corresponding endpoint."
      },
      "pingPong(uint256)": {
        "notice": "Tests a function, sends ping to another chain and expects pong back"
      },
      "sendMessage((uint8,uint8,uint8,address,address,uint256,uint256),bytes)": {
        "notice": "Sends a cross-chain message"
      },
      "sendMessageWithFee((uint8,uint8,uint8,address,address,uint256,uint256),bytes)": {
        "notice": "Sends a cross-chain message with fee"
      },
      "sendMessageWithFeeRefund(address,(uint8,uint8,uint8,address,address,uint256,uint256),bytes)": {
        "notice": "Sends a cross-chain message with fee"
      },
      "setCCManager(address)": {
        "notice": "Sets the manager address"
      },
      "setDelegate(address)": {
        "notice": "Sets the delegate address for the OApp."
      },
      "setMethodOption(uint8,uint128,uint128)": {
        "notice": "Sets the method gas limit mapping"
      },
      "setPeer(uint32,bytes32)": {
        "notice": "Sets the peer address (OApp instance) for a corresponding endpoint."
      },
      "withdrawNativeToken(address,uint256)": {
        "notice": "Withdraws native tokens from the contract"
      },
      "withdrawToken(address,address,uint256)": {
        "notice": "Withdraws ERC20 tokens from the contract"
      }
    },
    "notice": "CrossChainRelayV2 contract",
    "version": 1
  },
  "storageLayout": {
    "storage": [
      {
        "astId": 6660,
        "contract": "contracts/CrossChainRelayV2.sol:CrossChainRelayV2",
        "label": "endpoint",
        "offset": 0,
        "slot": "0",
        "type": "t_contract(ILayerZeroEndpointV2)695"
      },
      {
        "astId": 6664,
        "contract": "contracts/CrossChainRelayV2.sol:CrossChainRelayV2",
        "label": "peers",
        "offset": 0,
        "slot": "1",
        "type": "t_mapping(t_uint32,t_bytes32)"
      },
      {
        "astId": 6668,
        "contract": "contracts/CrossChainRelayV2.sol:CrossChainRelayV2",
        "label": "__gap",
        "offset": 0,
        "slot": "2",
        "type": "t_array(t_uint256)50_storage"
      },
      {
        "astId": 7011,
        "contract": "contracts/CrossChainRelayV2.sol:CrossChainRelayV2",
        "label": "__gap",
        "offset": 0,
        "slot": "52",
        "type": "t_array(t_uint256)50_storage"
      },
      {
        "astId": 6847,
        "contract": "contracts/CrossChainRelayV2.sol:CrossChainRelayV2",
        "label": "__gap",
        "offset": 0,
        "slot": "102",
        "type": "t_array(t_uint256)50_storage"
      },
      {
        "astId": 7206,
        "contract": "contracts/CrossChainRelayV2.sol:CrossChainRelayV2",
        "label": "__gap",
        "offset": 0,
        "slot": "152",
        "type": "t_array(t_uint256)50_storage"
      },
      {
        "astId": 7452,
        "contract": "contracts/CrossChainRelayV2.sol:CrossChainRelayV2",
        "label": "enforcedOptions",
        "offset": 0,
        "slot": "202",
        "type": "t_mapping(t_uint32,t_mapping(t_uint16,t_bytes_storage))"
      },
      {
        "astId": 7456,
        "contract": "contracts/CrossChainRelayV2.sol:CrossChainRelayV2",
        "label": "__gap",
        "offset": 0,
        "slot": "203",
        "type": "t_array(t_uint256)50_storage"
      },
      {
        "astId": 5757,
        "contract": "contracts/CrossChainRelayV2.sol:CrossChainRelayV2",
        "label": "nonce",
        "offset": 0,
        "slot": "253",
        "type": "t_mapping(t_uint32,t_mapping(t_bytes32,t_uint64))"
      },
      {
        "astId": 5763,
        "contract": "contracts/CrossChainRelayV2.sol:CrossChainRelayV2",
        "label": "lzOptions",
        "offset": 0,
        "slot": "254",
        "type": "t_mapping(t_uint8,t_struct(LzOption)6582_storage)"
      },
      {
        "astId": 5768,
        "contract": "contracts/CrossChainRelayV2.sol:CrossChainRelayV2",
        "label": "__gap",
        "offset": 0,
        "slot": "255",
        "type": "t_array(t_uint256)48_storage"
      },
      {
        "astId": 5894,
        "contract": "contracts/CrossChainRelayV2.sol:CrossChainRelayV2",
        "label": "chainId2Eid",
        "offset": 0,
        "slot": "303",
        "type": "t_mapping(t_uint256,t_uint32)"
      },
      {
        "astId": 5899,
        "contract": "contracts/CrossChainRelayV2.sol:CrossChainRelayV2",
        "label": "eid2ChainId",
        "offset": 0,
        "slot": "304",
        "type": "t_mapping(t_uint32,t_uint256)"
      },
      {
        "astId": 5902,
        "contract": "contracts/CrossChainRelayV2.sol:CrossChainRelayV2",
        "label": "ccManager",
        "offset": 0,
        "slot": "305",
        "type": "t_address"
      },
      {
        "astId": 5907,
        "contract": "contracts/CrossChainRelayV2.sol:CrossChainRelayV2",
        "label": "__gap",
        "offset": 0,
        "slot": "306",
        "type": "t_array(t_uint256)47_storage"
      }
    ],
    "types": {
      "t_address": {
        "encoding": "inplace",
        "label": "address",
        "numberOfBytes": "20"
      },
      "t_array(t_uint256)47_storage": {
        "base": "t_uint256",
        "encoding": "inplace",
        "label": "uint256[47]",
        "numberOfBytes": "1504"
      },
      "t_array(t_uint256)48_storage": {
        "base": "t_uint256",
        "encoding": "inplace",
        "label": "uint256[48]",
        "numberOfBytes": "1536"
      },
      "t_array(t_uint256)50_storage": {
        "base": "t_uint256",
        "encoding": "inplace",
        "label": "uint256[50]",
        "numberOfBytes": "1600"
      },
      "t_bytes32": {
        "encoding": "inplace",
        "label": "bytes32",
        "numberOfBytes": "32"
      },
      "t_bytes_storage": {
        "encoding": "bytes",
        "label": "bytes",
        "numberOfBytes": "32"
      },
      "t_contract(ILayerZeroEndpointV2)695": {
        "encoding": "inplace",
        "label": "contract ILayerZeroEndpointV2",
        "numberOfBytes": "20"
      },
      "t_mapping(t_bytes32,t_uint64)": {
        "encoding": "mapping",
        "key": "t_bytes32",
        "label": "mapping(bytes32 => uint64)",
        "numberOfBytes": "32",
        "value": "t_uint64"
      },
      "t_mapping(t_uint16,t_bytes_storage)": {
        "encoding": "mapping",
        "key": "t_uint16",
        "label": "mapping(uint16 => bytes)",
        "numberOfBytes": "32",
        "value": "t_bytes_storage"
      },
      "t_mapping(t_uint256,t_uint32)": {
        "encoding": "mapping",
        "key": "t_uint256",
        "label": "mapping(uint256 => uint32)",
        "numberOfBytes": "32",
        "value": "t_uint32"
      },
      "t_mapping(t_uint32,t_bytes32)": {
        "encoding": "mapping",
        "key": "t_uint32",
        "label": "mapping(uint32 => bytes32)",
        "numberOfBytes": "32",
        "value": "t_bytes32"
      },
      "t_mapping(t_uint32,t_mapping(t_bytes32,t_uint64))": {
        "encoding": "mapping",
        "key": "t_uint32",
        "label": "mapping(uint32 => mapping(bytes32 => uint64))",
        "numberOfBytes": "32",
        "value": "t_mapping(t_bytes32,t_uint64)"
      },
      "t_mapping(t_uint32,t_mapping(t_uint16,t_bytes_storage))": {
        "encoding": "mapping",
        "key": "t_uint32",
        "label": "mapping(uint32 => mapping(uint16 => bytes))",
        "numberOfBytes": "32",
        "value": "t_mapping(t_uint16,t_bytes_storage)"
      },
      "t_mapping(t_uint32,t_uint256)": {
        "encoding": "mapping",
        "key": "t_uint32",
        "label": "mapping(uint32 => uint256)",
        "numberOfBytes": "32",
        "value": "t_uint256"
      },
      "t_mapping(t_uint8,t_struct(LzOption)6582_storage)": {
        "encoding": "mapping",
        "key": "t_uint8",
        "label": "mapping(uint8 => struct LzOption)",
        "numberOfBytes": "32",
        "value": "t_struct(LzOption)6582_storage"
      },
      "t_struct(LzOption)6582_storage": {
        "encoding": "inplace",
        "label": "struct LzOption",
        "members": [
          {
            "astId": 6579,
            "contract": "contracts/CrossChainRelayV2.sol:CrossChainRelayV2",
            "label": "lzGas",
            "offset": 0,
            "slot": "0",
            "type": "t_uint128"
          },
          {
            "astId": 6581,
            "contract": "contracts/CrossChainRelayV2.sol:CrossChainRelayV2",
            "label": "lzValue",
            "offset": 16,
            "slot": "0",
            "type": "t_uint128"
          }
        ],
        "numberOfBytes": "32"
      },
      "t_uint128": {
        "encoding": "inplace",
        "label": "uint128",
        "numberOfBytes": "16"
      },
      "t_uint16": {
        "encoding": "inplace",
        "label": "uint16",
        "numberOfBytes": "2"
      },
      "t_uint256": {
        "encoding": "inplace",
        "label": "uint256",
        "numberOfBytes": "32"
      },
      "t_uint32": {
        "encoding": "inplace",
        "label": "uint32",
        "numberOfBytes": "4"
      },
      "t_uint64": {
        "encoding": "inplace",
        "label": "uint64",
        "numberOfBytes": "8"
      },
      "t_uint8": {
        "encoding": "inplace",
        "label": "uint8",
        "numberOfBytes": "1"
      }
    }
  }
}