{
    "_format": "hh-sol-artifact-1",
    "contractName": "VaultFactory",
    "sourceName": "contracts/VaultFactory.sol",
    "abi": [
        {
            "inputs": [
                {
                    "internalType": "address",
                    "name": "owner",
                    "type": "address"
                }
            ],
            "stateMutability": "nonpayable",
            "type": "constructor"
        },
        {
            "inputs": [],
            "name": "NoAccess",
            "type": "error"
        },
        {
            "inputs": [
                {
                    "internalType": "address",
                    "name": "owner",
                    "type": "address"
                }
            ],
            "name": "OwnableInvalidOwner",
            "type": "error"
        },
        {
            "inputs": [
                {
                    "internalType": "address",
                    "name": "account",
                    "type": "address"
                }
            ],
            "name": "OwnableUnauthorizedAccount",
            "type": "error"
        },
        {
            "anonymous": false,
            "inputs": [
                {
                    "indexed": false,
                    "internalType": "address",
                    "name": "deployedContract",
                    "type": "address"
                }
            ],
            "name": "ContractDeployed",
            "type": "event"
        },
        {
            "anonymous": false,
            "inputs": [
                {
                    "indexed": true,
                    "internalType": "address",
                    "name": "previousOwner",
                    "type": "address"
                },
                {
                    "indexed": true,
                    "internalType": "address",
                    "name": "newOwner",
                    "type": "address"
                }
            ],
            "name": "OwnershipTransferStarted",
            "type": "event"
        },
        {
            "anonymous": false,
            "inputs": [
                {
                    "indexed": true,
                    "internalType": "address",
                    "name": "previousOwner",
                    "type": "address"
                },
                {
                    "indexed": true,
                    "internalType": "address",
                    "name": "newOwner",
                    "type": "address"
                }
            ],
            "name": "OwnershipTransferred",
            "type": "event"
        },
        {
            "inputs": [],
            "name": "acceptOwnership",
            "outputs": [],
            "stateMutability": "nonpayable",
            "type": "function"
        },
        {
            "inputs": [
                {
                    "internalType": "bytes32",
                    "name": "salt",
                    "type": "bytes32"
                },
                {
                    "internalType": "bytes",
                    "name": "creationCode",
                    "type": "bytes"
                }
            ],
            "name": "deploy",
            "outputs": [
                {
                    "internalType": "address",
                    "name": "",
                    "type": "address"
                }
            ],
            "stateMutability": "nonpayable",
            "type": "function"
        },
        {
            "inputs": [
                {
                    "internalType": "bytes32",
                    "name": "salt",
                    "type": "bytes32"
                }
            ],
            "name": "getDeployed",
            "outputs": [
                {
                    "internalType": "address",
                    "name": "",
                    "type": "address"
                }
            ],
            "stateMutability": "view",
            "type": "function"
        },
        {
            "inputs": [
                {
                    "internalType": "address",
                    "name": "",
                    "type": "address"
                }
            ],
            "name": "isManager",
            "outputs": [
                {
                    "internalType": "bool",
                    "name": "",
                    "type": "bool"
                }
            ],
            "stateMutability": "view",
            "type": "function"
        },
        {
            "inputs": [],
            "name": "owner",
            "outputs": [
                {
                    "internalType": "address",
                    "name": "",
                    "type": "address"
                }
            ],
            "stateMutability": "view",
            "type": "function"
        },
        {
            "inputs": [],
            "name": "pendingOwner",
            "outputs": [
                {
                    "internalType": "address",
                    "name": "",
                    "type": "address"
                }
            ],
            "stateMutability": "view",
            "type": "function"
        },
        {
            "inputs": [],
            "name": "renounceOwnership",
            "outputs": [],
            "stateMutability": "nonpayable",
            "type": "function"
        },
        {
            "inputs": [
                {
                    "internalType": "address[]",
                    "name": "managers",
                    "type": "address[]"
                },
                {
                    "internalType": "bool",
                    "name": "knob",
                    "type": "bool"
                }
            ],
            "name": "setManagers",
            "outputs": [],
            "stateMutability": "nonpayable",
            "type": "function"
        },
        {
            "inputs": [
                {
                    "internalType": "address",
                    "name": "newOwner",
                    "type": "address"
                }
            ],
            "name": "transferOwnership",
            "outputs": [],
            "stateMutability": "nonpayable",
            "type": "function"
        }
    ],
    "bytecode": "0x608060405234801561001057600080fd5b50604051610a78380380610a7883398101604081905261002f916100da565b806001600160a01b03811661005e57604051631e4fbdf760e01b81526000600482015260240160405180910390fd5b6100678161006e565b505061010a565b600180546001600160a01b03191690556100878161008a565b50565b600080546001600160a01b038381166001600160a01b0319831681178455604051919092169283917f8be0079c531659141344cd1fd0a4f28419497f9722a3daafe3b4186f6b6457e09190a35050565b6000602082840312156100ec57600080fd5b81516001600160a01b038116811461010357600080fd5b9392505050565b61095f806101196000396000f3fe608060405234801561001057600080fd5b50600436106100a35760003560e01c8063cdcb760a11610076578063e30c39781161005b578063e30c397814610137578063f2fde38b14610155578063f3ae24151461016857600080fd5b8063cdcb760a14610111578063df20e2521461012457600080fd5b8063715018a6146100a857806379ba5097146100b25780638da5cb5b146100ba578063a57b8b14146100fe575b600080fd5b6100b061019b565b005b6100b06101af565b60005473ffffffffffffffffffffffffffffffffffffffff165b60405173ffffffffffffffffffffffffffffffffffffffff90911681526020015b60405180910390f35b6100b061010c3660046106ee565b61022b565b6100d461011f3660046107ab565b61032b565b6100d46101323660046108ab565b61041e565b60015473ffffffffffffffffffffffffffffffffffffffff166100d4565b6100b06101633660046108c4565b61045a565b61018b6101763660046108c4565b60026020526000908152604090205460ff1681565b60405190151581526020016100f5565b6101a361050a565b6101ad600061055d565b565b600154339073ffffffffffffffffffffffffffffffffffffffff16811461021f576040517f118cdaa700000000000000000000000000000000000000000000000000000000815273ffffffffffffffffffffffffffffffffffffffff821660048201526024015b60405180910390fd5b6102288161055d565b50565b61023361050a565b60005b828110156103255781151560026000868685818110610257576102576108fa565b905060200201602081019061026c91906108c4565b73ffffffffffffffffffffffffffffffffffffffff16815260208101919091526040016000205460ff1615151461031d5781600260008686858181106102b4576102b46108fa565b90506020020160208101906102c991906108c4565b73ffffffffffffffffffffffffffffffffffffffff168152602081019190915260400160002080547fffffffffffffffffffffffffffffffffffffffffffffffffffffffffffffff00169115159190911790555b600101610236565b50505050565b6000805473ffffffffffffffffffffffffffffffffffffffff16331480159061036457503360009081526002602052604090205460ff16155b1561039b576040517f2c1a75e200000000000000000000000000000000000000000000000000000000815260040160405180910390fd5b60408051602081018590520160405160208183030381529060405280519060200120925060006103cb838561058e565b60405173ffffffffffffffffffffffffffffffffffffffff821681529091507f8ffcdc15a283d706d38281f500270d8b5a656918f555de0913d7455e3e6bc1bf9060200160405180910390a19392505050565b60008160405160200161043391815260200190565b604051602081830303815290604052805190602001209150610454826105a3565b92915050565b61046261050a565b6001805473ffffffffffffffffffffffffffffffffffffffff83167fffffffffffffffffffffffff000000000000000000000000000000000000000090911681179091556104c560005473ffffffffffffffffffffffffffffffffffffffff1690565b73ffffffffffffffffffffffffffffffffffffffff167f38d16b8cac22d99fc7c124b9cd0de2d3fa1faef420bfe791d8c362d765e2270060405160405180910390a350565b60005473ffffffffffffffffffffffffffffffffffffffff1633146101ad576040517f118cdaa7000000000000000000000000000000000000000000000000000000008152336004820152602401610216565b600180547fffffffffffffffffffffffff0000000000000000000000000000000000000000169055610228816105af565b600061059c60008484610624565b9392505050565b60006104548230610694565b6000805473ffffffffffffffffffffffffffffffffffffffff8381167fffffffffffffffffffffffff0000000000000000000000000000000000000000831681178455604051919092169283917f8be0079c531659141344cd1fd0a4f28419497f9722a3daafe3b4186f6b6457e09190a35050565b60006f67363d3d37363d34f03d5260086018f3600052816010806000f5806106545763301164256000526004601cfd5b8060145261d69460005260016034536017601e20915060008085516020870188855af1823b0261068c5763301164256000526004601cfd5b509392505050565b60006040518260005260ff600b53836020527f21c35dbe1b344a2488cf3321d6ce542f8e9f305544ff09e4993a62319a497c1f6040526055600b20601452806040525061d694600052600160345350506017601e20919050565b60008060006040848603121561070357600080fd5b833567ffffffffffffffff81111561071a57600080fd5b8401601f8101861361072b57600080fd5b803567ffffffffffffffff81111561074257600080fd5b8660208260051b840101111561075757600080fd5b602091820194509250840135801515811461077157600080fd5b809150509250925092565b7f4e487b7100000000000000000000000000000000000000000000000000000000600052604160045260246000fd5b600080604083850312156107be57600080fd5b82359150602083013567ffffffffffffffff8111156107dc57600080fd5b8301601f810185136107ed57600080fd5b803567ffffffffffffffff8111156108075761080761077c565b6040517fffffffffffffffffffffffffffffffffffffffffffffffffffffffffffffffe0603f7fffffffffffffffffffffffffffffffffffffffffffffffffffffffffffffffe0601f8501160116810181811067ffffffffffffffff821117156108735761087361077c565b60405281815282820160200187101561088b57600080fd5b816020840160208301376000602083830101528093505050509250929050565b6000602082840312156108bd57600080fd5b5035919050565b6000602082840312156108d657600080fd5b813573ffffffffffffffffffffffffffffffffffffffff8116811461059c57600080fd5b7f4e487b7100000000000000000000000000000000000000000000000000000000600052603260045260246000fdfea2646970667358221220166439b93eb21b1399211693f7e67c3860fae45ce18a53fa8e1a435acd34d61564736f6c634300081b0033",
    "linkReferences": {},
    "deployedLinkReferences": {}
}