{"abi":[{"type":"function","name":"burn","inputs":[{"name":"burnData","type":"tuple","internalType":"struct RebalanceTypes.RebalanceBurnCCData","components":[{"name":"dstDomain","type":"uint32","internalType":"uint32"},{"name":"rebalanceId","type":"uint64","internalType":"uint64"},{"name":"amount","type":"uint128","internalType":"uint128"},{"name":"tokenHash","type":"bytes32","internalType":"bytes32"},{"name":"burnChainId","type":"uint256","internalType":"uint256"},{"name":"mintChainId","type":"uint256","internalType":"uint256"},{"name":"dstVaultAddress","type":"address","internalType":"address"}]}],"outputs":[],"stateMutability":"nonpayable"},{"type":"function","name":"ccRelayOption","inputs":[{"name":"","type":"uint256","internalType":"uint256"}],"outputs":[{"name":"","type":"uint8","internalType":"uint8"}],"stateMutability":"view"},{"type":"function","name":"chainId","inputs":[],"outputs":[{"name":"","type":"uint256","internalType":"uint256"}],"stateMutability":"view"},{"type":"function","name":"convertDecimal","inputs":[{"name":"tokenAmount","type":"uint128","internalType":"uint128"},{"name":"tokenHash","type":"bytes32","internalType":"bytes32"},{"name":"srcChainId","type":"uint256","internalType":"uint256"},{"name":"dstChainId","type":"uint256","internalType":"uint256"}],"outputs":[{"name":"","type":"uint128","internalType":"uint128"}],"stateMutability":"view"},{"type":"function","name":"crossChainRelay","inputs":[],"outputs":[{"name":"","type":"address","internalType":"contract IOrderlyCrossChain"}],"stateMutability":"view"},{"type":"function","name":"crossChainRelayV2","inputs":[],"outputs":[{"name":"","type":"address","internalType":"contract IOrderlyCrossChain"}],"stateMutability":"view"},{"type":"function","name":"enabledRelays","inputs":[{"name":"","type":"address","internalType":"address"}],"outputs":[{"name":"","type":"bool","internalType":"bool"}],"stateMutability":"view"},{"type":"function","name":"getRole","inputs":[],"outputs":[{"name":"","type":"string","internalType":"string"}],"stateMutability":"pure"},{"type":"function","name":"initialize","inputs":[],"outputs":[],"stateMutability":"nonpayable"},{"type":"function","name":"ledger","inputs":[],"outputs":[{"name":"","type":"address","internalType":"contract ILedger"}],"stateMutability":"view"},{"type":"function","name":"mint","inputs":[{"name":"mintData","type":"tuple","internalType":"struct RebalanceTypes.RebalanceMintCCData","components":[{"name":"rebalanceId","type":"uint64","internalType":"uint64"},{"name":"amount","type":"uint128","internalType":"uint128"},{"name":"tokenHash","type":"bytes32","internalType":"bytes32"},{"name":"burnChainId","type":"uint256","internalType":"uint256"},{"name":"mintChainId","type":"uint256","internalType":"uint256"},{"name":"messageBytes","type":"bytes","internalType":"bytes"},{"name":"messageSignature","type":"bytes","internalType":"bytes"}]}],"outputs":[],"stateMutability":"nonpayable"},{"type":"function","name":"operatorManager","inputs":[],"outputs":[{"name":"","type":"address","internalType":"contract IOperatorManager"}],"stateMutability":"view"},{"type":"function","name":"owner","inputs":[],"outputs":[{"name":"","type":"address","internalType":"address"}],"stateMutability":"view"},{"type":"function","name":"proxiableUUID","inputs":[],"outputs":[{"name":"","type":"bytes32","internalType":"bytes32"}],"stateMutability":"view"},{"type":"function","name":"receiveMessage","inputs":[{"name":"message","type":"tuple","internalType":"struct OrderlyCrossChainMessage.MessageV1","components":[{"name":"method","type":"uint8","internalType":"uint8"},{"name":"option","type":"uint8","internalType":"uint8"},{"name":"payloadDataType","type":"uint8","internalType":"uint8"},{"name":"srcCrossChainManager","type":"address","internalType":"address"},{"name":"dstCrossChainManager","type":"address","internalType":"address"},{"name":"srcChainId","type":"uint256","internalType":"uint256"},{"name":"dstChainId","type":"uint256","internalType":"uint256"}]},{"name":"payload","type":"bytes","internalType":"bytes"}],"outputs":[],"stateMutability":"nonpayable"},{"type":"function","name":"renounceOwnership","inputs":[],"outputs":[],"stateMutability":"nonpayable"},{"type":"function","name":"sendTestWithdraw","inputs":[{"name":"dstChainId","type":"uint256","internalType":"uint256"}],"outputs":[],"stateMutability":"nonpayable"},{"type":"function","name":"setCCRelayOption","inputs":[{"name":"_chainId","type":"uint256","internalType":"uint256"},{"name":"_ccRelayOption","type":"uint8","internalType":"uint8"}],"outputs":[],"stateMutability":"nonpayable"},{"type":"function","name":"setChainId","inputs":[{"name":"_chainId","type":"uint256","internalType":"uint256"}],"outputs":[],"stateMutability":"nonpayable"},{"type":"function","name":"setCrossChainRelay","inputs":[{"name":"_crossChainRelay","type":"address","internalType":"address"}],"outputs":[],"stateMutability":"nonpayable"},{"type":"function","name":"setCrossChainRelayV2","inputs":[{"name":"_crossChainRelayV2","type":"address","internalType":"address"}],"outputs":[],"stateMutability":"nonpayable"},{"type":"function","name":"setLedger","inputs":[{"name":"_ledger","type":"address","internalType":"address"}],"outputs":[],"stateMutability":"nonpayable"},{"type":"function","name":"setOperatorManager","inputs":[{"name":"_operatorManager","type":"address","internalType":"address"}],"outputs":[],"stateMutability":"nonpayable"},{"type":"function","name":"setRelayStatus","inputs":[{"name":"_ccRelay","type":"address","internalType":"address"},{"name":"_status","type":"bool","internalType":"bool"}],"outputs":[],"stateMutability":"nonpayable"},{"type":"function","name":"setTokenDecimal","inputs":[{"name":"tokenHash","type":"bytes32","internalType":"bytes32"},{"name":"tokenChainId","type":"uint256","internalType":"uint256"},{"name":"decimal","type":"uint128","internalType":"uint128"}],"outputs":[],"stateMutability":"nonpayable"},{"type":"function","name":"setVaultCrossChainManager","inputs":[{"name":"_chainId","type":"uint256","internalType":"uint256"},{"name":"_vaultCrossChainManager","type":"address","internalType":"address"}],"outputs":[],"stateMutability":"nonpayable"},{"type":"function","name":"tokenDecimalMapping","inputs":[{"name":"","type":"bytes32","internalType":"bytes32"},{"name":"","type":"uint256","internalType":"uint256"}],"outputs":[{"name":"","type":"uint128","internalType":"uint128"}],"stateMutability":"view"},{"type":"function","name":"transferOwnership","inputs":[{"name":"newOwner","type":"address","internalType":"address"}],"outputs":[],"stateMutability":"nonpayable"},{"type":"function","name":"upgradeTo","inputs":[{"name":"newImplementation","type":"address","internalType":"address"}],"outputs":[],"stateMutability":"nonpayable"},{"type":"function","name":"upgradeToAndCall","inputs":[{"name":"newImplementation","type":"address","internalType":"address"},{"name":"data","type":"bytes","internalType":"bytes"}],"outputs":[],"stateMutability":"payable"},{"type":"function","name":"vaultCrossChainManagers","inputs":[{"name":"","type":"uint256","internalType":"uint256"}],"outputs":[{"name":"","type":"address","internalType":"address"}],"stateMutability":"view"},{"type":"function","name":"withdraw","inputs":[{"name":"data","type":"tuple","internalType":"struct EventTypes.WithdrawData","components":[{"name":"tokenAmount","type":"uint128","internalType":"uint128"},{"name":"fee","type":"uint128","internalType":"uint128"},{"name":"chainId","type":"uint256","internalType":"uint256"},{"name":"accountId","type":"bytes32","internalType":"bytes32"},{"name":"r","type":"bytes32","internalType":"bytes32"},{"name":"s","type":"bytes32","internalType":"bytes32"},{"name":"v","type":"uint8","internalType":"uint8"},{"name":"sender","type":"address","internalType":"address"},{"name":"withdrawNonce","type":"uint64","internalType":"uint64"},{"name":"receiver","type":"address","internalType":"address"},{"name":"timestamp","type":"uint64","internalType":"uint64"},{"name":"brokerId","type":"string","internalType":"string"},{"name":"tokenSymbol","type":"string","internalType":"string"}]}],"outputs":[],"stateMutability":"nonpayable"},{"type":"function","name":"withdraw2Contract","inputs":[{"name":"data","type":"tuple","internalType":"struct EventTypes.Withdraw2Contract","components":[{"name":"tokenAmount","type":"uint128","internalType":"uint128"},{"name":"fee","type":"uint128","internalType":"uint128"},{"name":"chainId","type":"uint256","internalType":"uint256"},{"name":"accountId","type":"bytes32","internalType":"bytes32"},{"name":"vaultType","type":"uint8","internalType":"enum EventTypes.VaultEnum"},{"name":"sender","type":"address","internalType":"address"},{"name":"withdrawNonce","type":"uint64","internalType":"uint64"},{"name":"receiver","type":"address","internalType":"address"},{"name":"timestamp","type":"uint64","internalType":"uint64"},{"name":"brokerHash","type":"bytes32","internalType":"bytes32"},{"name":"tokenHash","type":"bytes32","internalType":"bytes32"},{"name":"clientId","type":"uint256","internalType":"uint256"}]}],"outputs":[],"stateMutability":"nonpayable"},{"type":"event","name":"AdminChanged","inputs":[{"name":"previousAdmin","type":"address","indexed":false,"internalType":"address"},{"name":"newAdmin","type":"address","indexed":false,"internalType":"address"}],"anonymous":false},{"type":"event","name":"BeaconUpgraded","inputs":[{"name":"beacon","type":"address","indexed":true,"internalType":"address"}],"anonymous":false},{"type":"event","name":"DepositReceived","inputs":[{"name":"data","type":"tuple","indexed":false,"internalType":"struct AccountTypes.AccountDeposit","components":[{"name":"accountId","type":"bytes32","internalType":"bytes32"},{"name":"brokerHash","type":"bytes32","internalType":"bytes32"},{"name":"userAddress","type":"address","internalType":"address"},{"name":"tokenHash","type":"bytes32","internalType":"bytes32"},{"name":"srcChainId","type":"uint256","internalType":"uint256"},{"name":"tokenAmount","type":"uint128","internalType":"uint128"},{"name":"srcChainDepositNonce","type":"uint64","internalType":"uint64"}]}],"anonymous":false},{"type":"event","name":"Initialized","inputs":[{"name":"version","type":"uint8","indexed":false,"internalType":"uint8"}],"anonymous":false},{"type":"event","name":"OwnershipTransferred","inputs":[{"name":"previousOwner","type":"address","indexed":true,"internalType":"address"},{"name":"newOwner","type":"address","indexed":true,"internalType":"address"}],"anonymous":false},{"type":"event","name":"SetCCRelayOption","inputs":[{"name":"chainId","type":"uint256","indexed":false,"internalType":"uint256"},{"name":"ccRelayOption","type":"uint8","indexed":false,"internalType":"uint8"}],"anonymous":false},{"type":"event","name":"SetCCRelayStatus","inputs":[{"name":"ccRelay","type":"address","indexed":true,"internalType":"address"},{"name":"status","type":"bool","indexed":false,"internalType":"bool"}],"anonymous":false},{"type":"event","name":"TestWithdrawDone","inputs":[],"anonymous":false},{"type":"event","name":"Upgraded","inputs":[{"name":"implementation","type":"address","indexed":true,"internalType":"address"}],"anonymous":false}],"bytecode":{"object":"0x60a06040523060805234801561001457600080fd5b50608051612f8d61003e6000396000818161085e015281816108e301526109bb0152612f8d6000f3fe6080604052600436106101ee5760003560e01c80637b6471d01161010d578063c26aeb47116100a0578063ef0e2ff41161006f578063ef0e2ff4146105d7578063f2fde38b146105f7578063f957b50314610617578063fde0817414610637578063ff5598b01461066c57600080fd5b8063c26aeb4714610535578063c41100fa14610577578063d8688f5014610597578063e7faa3ca146105b757600080fd5b80639818d477116100dc5780639818d477146104a95780639a8a0592146104c95780639c231818146104df578063ae779eeb146104ff57600080fd5b80637b6471d0146104365780638129fc1c146104565780638da5cb5b1461046b57806394cbd2bc1461048957600080fd5b80635741cad31161018557806374e6cb131161015457806374e6cb13146103b6578063754c5622146103d6578063760f5a83146103f657806376854c5f1461041657600080fd5b80635741cad3146103085780635c86046e14610328578063715018a61461038157806371b3dcb31461039657600080fd5b80634c0e4336116101c15780634c0e4336146102925780634f1ef286146102b257806352d1902d146102c557806356397c35146102e857600080fd5b806322503e34146101f35780632f84c96f146102155780633246887d146102525780633659cfe614610272575b600080fd5b3480156101ff57600080fd5b5061021361020e366004612034565b6106ac565b005b34801561022157600080fd5b5060cc54610235906001600160a01b031681565b6040516001600160a01b0390911681526020015b60405180910390f35b34801561025e57600080fd5b5061021361026d36600461216d565b6107d9565b34801561027e57600080fd5b5061021361028d36600461216d565b610803565b34801561029e57600080fd5b506102136102ad36600461216d565b61082a565b6102136102c036600461218a565b610854565b3480156102d157600080fd5b506102da6109ae565b604051908152602001610249565b3480156102f457600080fd5b5060ca54610235906001600160a01b031681565b34801561031457600080fd5b506102136103233660046121d9565b610a61565b34801561033457600080fd5b50610369610343366004612209565b60ce6020908152600092835260408084209091529082529020546001600160801b031681565b6040516001600160801b039091168152602001610249565b34801561038d57600080fd5b50610213610a97565b3480156103a257600080fd5b506102136103b136600461222b565b610aab565b3480156103c257600080fd5b5060cb54610235906001600160a01b031681565b3480156103e257600080fd5b506102136103f13660046122e7565b610f6e565b34801561040257600080fd5b5061021361041136600461216d565b610fd5565b34801561042257600080fd5b50610213610431366004612315565b610fff565b34801561044257600080fd5b5060d154610235906001600160a01b031681565b34801561046257600080fd5b50610213611061565b34801561047757600080fd5b506033546001600160a01b0316610235565b34801561049557600080fd5b506102136104a4366004612341565b611179565b3480156104b557600080fd5b506102136104c4366004612369565b611308565b3480156104d557600080fd5b506102da60c95481565b3480156104eb57600080fd5b506102136104fa366004612434565b6113fc565b34801561050b57600080fd5b5061023561051a366004612341565b60cd602052600090815260409020546001600160a01b031681565b34801561054157600080fd5b50610565610550366004612341565b60cf6020526000908152604090205460ff1681565b60405160ff9091168152602001610249565b34801561058357600080fd5b5061021361059236600461216d565b611559565b3480156105a357600080fd5b506102136105b23660046124bc565b611583565b3480156105c357600080fd5b506102136105d23660046124f5565b6115d0565b3480156105e357600080fd5b506102136105f2366004612341565b6116a1565b34801561060357600080fd5b5061021361061236600461216d565b6116ae565b34801561062357600080fd5b506103696106323660046125c5565b611724565b34801561064357600080fd5b5060408051808201825260068152653632b233b2b960d11b602082015290516102499190612650565b34801561067857600080fd5b5061069c61068736600461216d565b60d06020526000908152604090205460ff1681565b6040519015158152602001610249565b60ca546001600160a01b031633146106df5760405162461bcd60e51b81526004016106d690612663565b60405180910390fd5b6040805160e081018252600181528282018051600090815260cf60209081528482205460ff16818501528385018290523060608501528251825260cd9052928320546001600160a01b0316608083015260c95460a08301525160c08201528251610180840151919291610763919061075690611759565b60c9548660400151611724565b9050600061078a846020015161077d866101800151611759565b60c9548760400151611724565b6001600160801b03808416865281166020808701919091526040519192506000916107b7918791016126b0565b60405160208183030381529060405290506107d28482611789565b5050505050565b6107e1611839565b60ca80546001600160a01b0319166001600160a01b0392909216919091179055565b61080b611839565b6040805160008082526020820190925261082791839190611893565b50565b610832611839565b60cb80546001600160a01b0319166001600160a01b0392909216919091179055565b6001600160a01b037f00000000000000000000000000000000000000000000000000000000000000001630036108e15760405162461bcd60e51b815260206004820152602c60248201527f46756e6374696f6e206d7573742062652063616c6c6564207468726f7567682060448201526b19195b1959d85d1958d85b1b60a21b60648201526084016106d6565b7f00000000000000000000000000000000000000000000000000000000000000006001600160a01b031661092a600080516020612f11833981519152546001600160a01b031690565b6001600160a01b0316146109955760405162461bcd60e51b815260206004820152602c60248201527f46756e6374696f6e206d7573742062652063616c6c6564207468726f7567682060448201526b6163746976652070726f787960a01b60648201526084016106d6565b61099e826119fe565b6109aa82826001611893565b5050565b6000306001600160a01b037f00000000000000000000000000000000000000000000000000000000000000001614610a4e5760405162461bcd60e51b815260206004820152603860248201527f555550535570677261646561626c653a206d757374206e6f742062652063616c60448201527f6c6564207468726f7567682064656c656761746563616c6c000000000000000060648201526084016106d6565b50600080516020612f1183398151915290565b610a69611839565b600091825260cd602052604090912080546001600160a01b0319166001600160a01b03909216919091179055565b610a9f611839565b610aa96000611a06565b565b33600090815260d0602052604090205460ff16610b295760405162461bcd60e51b815260206004820152603660248201527f4c656467657243726f7373436861696e4d616e616765723a206f6e6c7920656e60448201527518589b19590810d0d4995b185e4818d85b8818d85b1b60521b60648201526084016106d6565b60c9548260c0015114610b945760405162461bcd60e51b815260206004820152602d60248201527f4c656467657243726f7373436861696e4d616e616765723a206473744368616960448201526c0dc92c840dcdee840dac2e8c6d609b1b60648201526084016106d6565b600360ff16826040015160ff1603610c4f57600081806020019051810190610bbc91906127f1565b90506000610bda826080015183606001518660a0015160c954611724565b905060006040518060e00160405280846000015181526020018460400151815260200184602001516001600160a01b03168152602001846060015181526020018660a001518152602001836001600160801b031681526020018460a001516001600160401b031681525090506107d281611a58565b600460ff16826040015160ff1603610dc157600081806020019051810190610c779190612865565b9050610caf6040518060400160405280601581526020017410dc9bdcdcd0da185a5b93585b9859d95c95195cdd605a1b815250611759565b816040015103610ce7576040517f17bb9ec4664360a738c7216a71ab39776f977758cff4cd3087ceac5ca417a92890600090a1505050565b6000610d03826060015183604001518660a0015160c954611724565b90506000610d21836080015184604001518760a0015160c954611724565b90506000604051806101200160405280856000015181526020018560a001516001600160a01b031681526020018560c001516001600160a01b031681526020018560200151815260200185604001518152602001846001600160801b03168152602001836001600160801b031681526020018760a0015181526020018560e001516001600160401b03168152509050610db981611aed565b505050505050565b600660ff16826040015160ff1603610e8257600081806020019051810190610de9919061298e565b90506000610e07826040015183606001518660a0015160c954611724565b6001600160801b03811660408085019190915260ca549051634bfc481f60e11b81529192506001600160a01b0316906397f8903e90610e4a9085906004016129aa565b600060405180830381600087803b158015610e6457600080fd5b505af1158015610e78573d6000803e3d6000fd5b5050505050505050565b600860ff16826040015160ff1603610f0b57600081806020019051810190610eaa919061298e565b90506000610ec8826040015183606001518660a0015160c954611724565b6001600160801b03811660408085019190915260ca54905163efb556ed60e01b81529192506001600160a01b03169063efb556ed90610e4a9085906004016129aa565b60405162461bcd60e51b815260206004820152603260248201527f4c656467657243726f7373436861696e4d616e616765723a207061796c6f6164604482015271088c2e8c2a8f2e0ca40dcdee840dac2e8c6d60731b60648201526084016106d6565b610f76611839565b6001600160a01b038216600081815260d06020908152604091829020805460ff191685151590811790915591519182527f066624363ad2d4c4fa6d43dede7469584bb260c6af44533a5ed3aa75ec501fcb910160405180910390a25050565b610fdd611839565b60d180546001600160a01b0319166001600160a01b0392909216919091179055565b611007611839565b600082815260cf6020908152604091829020805460ff191660ff85169081179091558251858152918201527fdaf99c483bfa99a4007ac69ae25f64806a7efda0b2a51f2123a2727ed0589e91910160405180910390a15050565b600054610100900460ff16158080156110815750600054600160ff909116105b8061109b5750303b15801561109b575060005460ff166001145b6110fe5760405162461bcd60e51b815260206004820152602e60248201527f496e697469616c697a61626c653a20636f6e747261637420697320616c72656160448201526d191e481a5b9a5d1a585b1a5e995960921b60648201526084016106d6565b6000805460ff191660011790558015611121576000805461ff0019166101001790555b611129611b1d565b611131611b4c565b8015610827576000805461ff0019169055604051600181527f7f26b83ff96e1f2b6a682f133852f6798a09c465da95921460cefb38474024989060200160405180910390a150565b611181611839565b604080516101a08101825260648152600060208083018290528284018581526060808501849052608080860185905260a0808701869052600160c080890182905261012660e0808b01919091526101008a018390526101276101208b01526101408a018390528a51808c018c526008815267189c9bdad95c925960c21b818a01526101608b01528a51808c018c52601581527410dc9bdcdcd0da185a5b93585b9859d95c95195cdd605a1b818a01526101808b019081528b519182018c529281528651895260cf88528a89205460ff1681890152808b0189905230958101959095528551885260cd909652978620546001600160a01b03169183019190915260c9549082015290519181019190915282519351929390926112a6919061075690611759565b905060006112c0846020015161077d866101800151611759565b6001600160801b03808416865281166020808701919091526040519192506000916112ed918791016126b0565b6040516020818303038152906040529050610db98482611789565b60ca546001600160a01b031633146113325760405162461bcd60e51b81526004016106d690612663565b6040805160e08101825260098082528383018051600090815260cf60209081528582205460ff1681860152848601939093523060608501528151815260cd909252928120546001600160a01b0316608083015260c95460a08301819052835160c084015284516101408601519451939492936113b093919290611724565b905060006113cf846020015185610140015160c9548760400151611724565b6001600160801b03808416865281166020808701919091526040519192506000916107b791879101612a23565b60ca546001600160a01b031633146114265760405162461bcd60e51b81526004016106d690612663565b6040805160e081018252600580825260808481018051600090815260cf60209081528682205460ff168187015285870194909452306060808701919091528251825260cd909452858120546001600160a01b03169285019290925260c95460a08501819052815160c086015294860151928601519051939491936114ab939290611724565b6001600160801b03811660408086019190915251909150600090611538908590602001815163ffffffff1681526020808301516001600160401b0316908201526040808301516001600160801b031690820152606080830151908201526080808301519082015260a0808301519082015260c0918201516001600160a01b03169181019190915260e00190565b60405160208183030381529060405290506115538382611789565b50505050565b611561611839565b60cc80546001600160a01b0319166001600160a01b0392909216919091179055565b61158b611839565b600083815260ce60209081526040808320858452909152902080546fffffffffffffffffffffffffffffffff19166001600160801b038316179055505050565b505050565b60ca546001600160a01b031633146115fa5760405162461bcd60e51b81526004016106d690612663565b6040805160e081018252600780825260808481018051600090815260cf60209081528682205460ff1681870152858701949094523060608601528151815260cd8452858120546001600160a01b03169285019290925260c95460a08501819052815160c086015292860151948601519051939491936116799390611724565b6001600160801b03811660208086019190915260405191925060009161153891869101612b04565b6116a9611839565b60c955565b6116b6611839565b6001600160a01b03811661171b5760405162461bcd60e51b815260206004820152602660248201527f4f776e61626c653a206e6577206f776e657220697320746865207a65726f206160448201526564647265737360d01b60648201526084016106d6565b61082781611a06565b6000806117318585611b73565b9050600061173f8685611b73565b905061174c878383611b9d565b925050505b949350505050565b60008160405160200161176c9190612b8b565b604051602081830303815290604052805190602001209050919050565b602082015160ff166117f55760cb54604051634427ec2f60e11b81526001600160a01b039091169063884fd85e906117c79085908590600401612ba7565b600060405180830381600087803b1580156117e157600080fd5b505af1158015610db9573d6000803e3d6000fd5b600160ff16826020015160ff16036109aa5760d154604051634427ec2f60e11b81526001600160a01b039091169063884fd85e906117c79085908590600401612ba7565b6033546001600160a01b03163314610aa95760405162461bcd60e51b815260206004820181905260248201527f4f776e61626c653a2063616c6c6572206973206e6f7420746865206f776e657260448201526064016106d6565b7f4910fdfa16fed3260ed0e7147f7cc6da11a60208b5b9406d12a635614ffd91435460ff16156118c6576115cb83611c25565b826001600160a01b03166352d1902d6040518163ffffffff1660e01b8152600401602060405180830381865afa925050508015611920575060408051601f3d908101601f1916820190925261191d91810190612c15565b60015b6119835760405162461bcd60e51b815260206004820152602e60248201527f45524331393637557067726164653a206e657720696d706c656d656e7461746960448201526d6f6e206973206e6f74205555505360901b60648201526084016106d6565b600080516020612f1183398151915281146119f25760405162461bcd60e51b815260206004820152602960248201527f45524331393637557067726164653a20756e737570706f727465642070726f786044820152681a58589b195555525160ba1b60648201526084016106d6565b506115cb838383611cc1565b610827611839565b603380546001600160a01b038381166001600160a01b0319831681179093556040519116919082907f8be0079c531659141344cd1fd0a4f28419497f9722a3daafe3b4186f6b6457e090600090a35050565b7f13167ac8b2f6ccf09dd1ab976283056c95bb5b9efe8e39396c789013595344ef81604051611a879190612c2e565b60405180910390a160ca5460405163047833fd60e21b81526001600160a01b03909116906311e0cff490611abf908490600401612c2e565b600060405180830381600087803b158015611ad957600080fd5b505af11580156107d2573d6000803e3d6000fd5b60ca54604051631fc1839f60e11b81526001600160a01b0390911690633f83073e90611abf908490600401612c92565b600054610100900460ff16611b445760405162461bcd60e51b81526004016106d690612d38565b610aa9611ce6565b600054610100900460ff16610aa95760405162461bcd60e51b81526004016106d690612d38565b600082815260ce602090815260408083208484529091529020546001600160801b03165b92915050565b6000816001600160801b0316836001600160801b031603611bbf575082611c1e565b816001600160801b0316836001600160801b03161115611bff57611be38284612d99565b611bee90600a612ea4565b611bf89085612eb9565b9050611c1e565b611c098383612d99565b611c1490600a612ea4565b611bf89085612eed565b9392505050565b6001600160a01b0381163b611c925760405162461bcd60e51b815260206004820152602d60248201527f455243313936373a206e657720696d706c656d656e746174696f6e206973206e60448201526c1bdd08184818dbdb9d1c9858dd609a1b60648201526084016106d6565b600080516020612f1183398151915280546001600160a01b0319166001600160a01b0392909216919091179055565b611cca83611d16565b600082511180611cd75750805b156115cb576115538383611d56565b600054610100900460ff16611d0d5760405162461bcd60e51b81526004016106d690612d38565b610aa933611a06565b611d1f81611c25565b6040516001600160a01b038216907fbc7cd75a20ee27fd9adebab32041f755214dbc6bffa90cc0225b39da2e5c2d3b90600090a250565b6060611c1e8383604051806060016040528060278152602001612f31602791396060600080856001600160a01b031685604051611d939190612b8b565b600060405180830381855af49150503d8060008114611dce576040519150601f19603f3d011682016040523d82523d6000602084013e611dd3565b606091505b5091509150611de486838387611dee565b9695505050505050565b60608315611e5d578251600003611e56576001600160a01b0385163b611e565760405162461bcd60e51b815260206004820152601d60248201527f416464726573733a2063616c6c20746f206e6f6e2d636f6e747261637400000060448201526064016106d6565b5081611751565b6117518383815115611e725781518083602001fd5b8060405162461bcd60e51b81526004016106d69190612650565b634e487b7160e01b600052604160045260246000fd5b6040516101a081016001600160401b0381118282101715611ec557611ec5611e8c565b60405290565b60405160e081016001600160401b0381118282101715611ec557611ec5611e8c565b60405161018081016001600160401b0381118282101715611ec557611ec5611e8c565b60405160c081016001600160401b0381118282101715611ec557611ec5611e8c565b6001600160801b038116811461082757600080fd5b8035611f5281611f32565b919050565b803560ff81168114611f5257600080fd5b6001600160a01b038116811461082757600080fd5b8035611f5281611f68565b6001600160401b038116811461082757600080fd5b8035611f5281611f88565b600082601f830112611fb957600080fd5b81356001600160401b0380821115611fd357611fd3611e8c565b604051601f8301601f19908116603f01168101908282118183101715611ffb57611ffb611e8c565b8160405283815286602085880101111561201457600080fd5b836020870160208301376000602085830101528094505050505092915050565b60006020828403121561204657600080fd5b81356001600160401b038082111561205d57600080fd5b908301906101a0828603121561207257600080fd5b61207a611ea2565b61208383611f47565b815261209160208401611f47565b602082015260408301356040820152606083013560608201526080830135608082015260a083013560a08201526120ca60c08401611f57565b60c08201526120db60e08401611f7d565b60e08201526101006120ee818501611f9d565b90820152610120612100848201611f7d565b90820152610140612112848201611f9d565b90820152610160838101358381111561212a57600080fd5b61213688828701611fa8565b828401525050610180808401358381111561215057600080fd5b61215c88828701611fa8565b918301919091525095945050505050565b60006020828403121561217f57600080fd5b8135611c1e81611f68565b6000806040838503121561219d57600080fd5b82356121a881611f68565b915060208301356001600160401b038111156121c357600080fd5b6121cf85828601611fa8565b9150509250929050565b600080604083850312156121ec57600080fd5b8235915060208301356121fe81611f68565b809150509250929050565b6000806040838503121561221c57600080fd5b50508035926020909101359150565b60008082840361010081121561224057600080fd5b60e081121561224e57600080fd5b50612257611ecb565b61226084611f57565b815261226e60208501611f57565b602082015261227f60408501611f57565b6040820152606084013561229281611f68565b606082015260808401356122a581611f68565b608082015260a0848101359082015260c08085013590820152915060e08301356001600160401b038111156121c357600080fd5b801515811461082757600080fd5b600080604083850312156122fa57600080fd5b823561230581611f68565b915060208301356121fe816122d9565b6000806040838503121561232857600080fd5b8235915061233860208401611f57565b90509250929050565b60006020828403121561235357600080fd5b5035919050565b803560028110611f5257600080fd5b6000610180828403121561237c57600080fd5b612384611eed565b61238d83611f47565b815261239b60208401611f47565b602082015260408301356040820152606083013560608201526123c06080840161235a565b60808201526123d160a08401611f7d565b60a08201526123e260c08401611f9d565b60c08201526123f360e08401611f7d565b60e0820152610100612406818501611f9d565b9082015261012083810135908201526101408084013590820152610160928301359281019290925250919050565b600060e0828403121561244657600080fd5b61244e611ecb565b823563ffffffff8116811461246257600080fd5b815261247060208401611f9d565b602082015261248160408401611f47565b6040820152606083013560608201526080830135608082015260a083013560a08201526124b060c08401611f7d565b60c08201529392505050565b6000806000606084860312156124d157600080fd5b833592506020840135915060408401356124ea81611f32565b809150509250925092565b60006020828403121561250757600080fd5b81356001600160401b038082111561251e57600080fd5b9083019060e0828603121561253257600080fd5b61253a611ecb565b61254383611f9d565b815261255160208401611f47565b602082015260408301356040820152606083013560608201526080830135608082015260a08301358281111561258657600080fd5b61259287828601611fa8565b60a08301525060c0830135828111156125aa57600080fd5b6125b687828601611fa8565b60c08301525095945050505050565b600080600080608085870312156125db57600080fd5b84356125e681611f32565b966020860135965060408601359560600135945092505050565b60005b8381101561261b578181015183820152602001612603565b50506000910152565b6000815180845261263c816020860160208601612600565b601f01601f19169290920160200192915050565b602081526000611c1e6020830184612624565b6020808252602d908201527f4c656467657243726f7373436861696e4d616e616765723a2063616c6c65722060408201526c34b9903737ba103632b233b2b960991b606082015260800190565b602081526126ca6020820183516001600160801b03169052565b600060208301516126e660408401826001600160801b03169052565b506040830151606083015260608301516080830152608083015160a083015260a083015160c083015260c083015161272360e084018260ff169052565b5060e0830151610100612740818501836001600160a01b03169052565b840151905061012061275c848201836001600160401b03169052565b8401519050610140612778848201836001600160a01b03169052565b8401519050610160612794848201836001600160401b03169052565b808501519150506101a061018081818601526127b46101c0860184612624565b90860151858203601f190183870152909250611de48382612624565b8051611f5281611f68565b8051611f5281611f32565b8051611f5281611f88565b600060c0828403121561280357600080fd5b61280b611f10565b82518152602083015161281d81611f68565b806020830152506040830151604082015260608301516060820152608083015161284681611f32565b608082015260a083015161285981611f88565b60a08201529392505050565b600061010080838503121561287957600080fd5b604051908101906001600160401b038211818310171561289b5761289b611e8c565b81604052835181526020840151602082015260408401516040820152606084015191506128c782611f32565b8160608201526128d9608085016127db565b60808201526128ea60a085016127d0565b60a08201526128fb60c085016127d0565b60c082015261290c60e085016127e6565b60e0820152949350505050565b600060c0828403121561292b57600080fd5b612933611f10565b90508151612940816122d9565b8152602082015161295081611f88565b6020820152604082015161296381611f32565b80604083015250606082015160608201526080820151608082015260a082015160a082015292915050565b600060c082840312156129a057600080fd5b611c1e8383612919565b60c08101611b9782848051151582526001600160401b0360208201511660208301526001600160801b036040820151166040830152606081015160608301526080810151608083015260a081015160a08301525050565b60028110612a1f57634e487b7160e01b600052602160045260246000fd5b9052565b81516001600160801b0316815261018081016020830151612a4f60208401826001600160801b03169052565b5060408301516040830152606083015160608301526080830151612a766080840182612a01565b5060a0830151612a9160a08401826001600160a01b03169052565b5060c0830151612aac60c08401826001600160401b03169052565b5060e0830151612ac760e08401826001600160a01b03169052565b50610100838101516001600160401b0316908301526101208084015190830152610140808401519083015261016092830151929091019190915290565b602081526001600160401b0382511660208201526001600160801b0360208301511660408201526040820151606082015260608201516080820152608082015160a0820152600060a083015160e060c0840152612b65610100840182612624565b905060c0840151601f198483030160e0850152612b828282612624565b95945050505050565b60008251612b9d818460208701612600565b9190910192915050565b600061010060ff855116835260ff602086015116602084015260ff6040860151166040840152606085015160018060a01b038082166060860152806080880151166080860152505060a085015160a084015260c085015160c08401528060e0840152612b8281840185612624565b600060208284031215612c2757600080fd5b5051919050565b81518152602080830151908201526040808301516001600160a01b031690820152606080830151908201526080808301519082015260a0808301516001600160801b03169082015260c0918201516001600160401b03169181019190915260e00190565b60006101208201905082518252602083015160018060a01b0380821660208501528060408601511660408501525050606083015160608301526080830151608083015260a0830151612cef60a08401826001600160801b03169052565b5060c0830151612d0a60c08401826001600160801b03169052565b5060e083015160e083015261010080840151612d30828501826001600160401b03169052565b505092915050565b6020808252602b908201527f496e697469616c697a61626c653a20636f6e7472616374206973206e6f74206960408201526a6e697469616c697a696e6760a81b606082015260800190565b634e487b7160e01b600052601160045260246000fd5b6001600160801b03828116828216039080821115612db957612db9612d83565b5092915050565b600181815b80851115612dfb578160001904821115612de157612de1612d83565b80851615612dee57918102915b93841c9390800290612dc5565b509250929050565b600082612e1257506001611b97565b81612e1f57506000611b97565b8160018114612e355760028114612e3f57612e5b565b6001915050611b97565b60ff841115612e5057612e50612d83565b50506001821b611b97565b5060208310610133831016604e8410600b8410161715612e7e575081810a611b97565b612e888383612dc0565b8060001904821115612e9c57612e9c612d83565b029392505050565b6000611c1e6001600160801b03841683612e03565b60006001600160801b0380841680612ee157634e487b7160e01b600052601260045260246000fd5b92169190910492915050565b6001600160801b03818116838216028082169190828114612d3057612d30612d8356fe360894a13ba1a3210667c828492db98dca3e2076cc3735a920a3ca505d382bbc416464726573733a206c6f772d6c6576656c2064656c65676174652063616c6c206661696c6564a26469706673582212201b9e19cccb3eb6d2a4c5104acbda29827e12a7db880c5d0f17a7921178e801fd64736f6c63430008130033","linkReferences":{}},"methodIdentifiers":{"burn((uint32,uint64,uint128,bytes32,uint256,uint256,address))":"9c231818","ccRelayOption(uint256)":"c26aeb47","chainId()":"9a8a0592","convertDecimal(uint128,bytes32,uint256,uint256)":"f957b503","crossChainRelay()":"74e6cb13","crossChainRelayV2()":"7b6471d0","enabledRelays(address)":"ff5598b0","getRole()":"fde08174","initialize()":"8129fc1c","ledger()":"56397c35","mint((uint64,uint128,bytes32,uint256,uint256,bytes,bytes))":"e7faa3ca","operatorManager()":"2f84c96f","owner()":"8da5cb5b","proxiableUUID()":"52d1902d","receiveMessage((uint8,uint8,uint8,address,address,uint256,uint256),bytes)":"71b3dcb3","renounceOwnership()":"715018a6","sendTestWithdraw(uint256)":"94cbd2bc","setCCRelayOption(uint256,uint8)":"76854c5f","setChainId(uint256)":"ef0e2ff4","setCrossChainRelay(address)":"4c0e4336","setCrossChainRelayV2(address)":"760f5a83","setLedger(address)":"3246887d","setOperatorManager(address)":"c41100fa","setRelayStatus(address,bool)":"754c5622","setTokenDecimal(bytes32,uint256,uint128)":"d8688f50","setVaultCrossChainManager(uint256,address)":"5741cad3","tokenDecimalMapping(bytes32,uint256)":"5c86046e","transferOwnership(address)":"f2fde38b","upgradeTo(address)":"3659cfe6","upgradeToAndCall(address,bytes)":"4f1ef286","vaultCrossChainManagers(uint256)":"ae779eeb","withdraw((uint128,uint128,uint256,bytes32,bytes32,bytes32,uint8,address,uint64,address,uint64,string,string))":"22503e34","withdraw2Contract((uint128,uint128,uint256,bytes32,uint8,address,uint64,address,uint64,bytes32,bytes32,uint256))":"9818d477"},"id":14}