{"abi":[{"type":"function","name":"burnFinish","inputs":[{"name":"data","type":"tuple","internalType":"struct RebalanceTypes.RebalanceBurnCCFinishData","components":[{"name":"success","type":"bool","internalType":"bool"},{"name":"rebalanceId","type":"uint64","internalType":"uint64"},{"name":"amount","type":"uint128","internalType":"uint128"},{"name":"tokenHash","type":"bytes32","internalType":"bytes32"},{"name":"burnChainId","type":"uint256","internalType":"uint256"},{"name":"mintChainId","type":"uint256","internalType":"uint256"}]}],"outputs":[],"stateMutability":"nonpayable"},{"type":"function","name":"ccRelayOption","inputs":[],"outputs":[{"name":"","type":"uint8","internalType":"uint8"}],"stateMutability":"view"},{"type":"function","name":"chainId","inputs":[],"outputs":[{"name":"","type":"uint256","internalType":"uint256"}],"stateMutability":"view"},{"type":"function","name":"crossChainRelay","inputs":[],"outputs":[{"name":"","type":"address","internalType":"contract IOrderlyCrossChain"}],"stateMutability":"view"},{"type":"function","name":"crossChainRelayV2","inputs":[],"outputs":[{"name":"","type":"address","internalType":"contract IOrderlyCrossChain"}],"stateMutability":"view"},{"type":"function","name":"deposit","inputs":[{"name":"data","type":"tuple","internalType":"struct VaultTypes.VaultDeposit","components":[{"name":"accountId","type":"bytes32","internalType":"bytes32"},{"name":"userAddress","type":"address","internalType":"address"},{"name":"brokerHash","type":"bytes32","internalType":"bytes32"},{"name":"tokenHash","type":"bytes32","internalType":"bytes32"},{"name":"tokenAmount","type":"uint128","internalType":"uint128"},{"name":"depositNonce","type":"uint64","internalType":"uint64"}]}],"outputs":[],"stateMutability":"nonpayable"},{"type":"function","name":"depositWithFee","inputs":[{"name":"data","type":"tuple","internalType":"struct VaultTypes.VaultDeposit","components":[{"name":"accountId","type":"bytes32","internalType":"bytes32"},{"name":"userAddress","type":"address","internalType":"address"},{"name":"brokerHash","type":"bytes32","internalType":"bytes32"},{"name":"tokenHash","type":"bytes32","internalType":"bytes32"},{"name":"tokenAmount","type":"uint128","internalType":"uint128"},{"name":"depositNonce","type":"uint64","internalType":"uint64"}]}],"outputs":[],"stateMutability":"payable"},{"type":"function","name":"depositWithFeeRefund","inputs":[{"name":"refundReceiver","type":"address","internalType":"address"},{"name":"data","type":"tuple","internalType":"struct VaultTypes.VaultDeposit","components":[{"name":"accountId","type":"bytes32","internalType":"bytes32"},{"name":"userAddress","type":"address","internalType":"address"},{"name":"brokerHash","type":"bytes32","internalType":"bytes32"},{"name":"tokenHash","type":"bytes32","internalType":"bytes32"},{"name":"tokenAmount","type":"uint128","internalType":"uint128"},{"name":"depositNonce","type":"uint64","internalType":"uint64"}]}],"outputs":[],"stateMutability":"payable"},{"type":"function","name":"enabledRelays","inputs":[{"name":"","type":"address","internalType":"address"}],"outputs":[{"name":"","type":"bool","internalType":"bool"}],"stateMutability":"view"},{"type":"function","name":"getDepositFee","inputs":[{"name":"data","type":"tuple","internalType":"struct VaultTypes.VaultDeposit","components":[{"name":"accountId","type":"bytes32","internalType":"bytes32"},{"name":"userAddress","type":"address","internalType":"address"},{"name":"brokerHash","type":"bytes32","internalType":"bytes32"},{"name":"tokenHash","type":"bytes32","internalType":"bytes32"},{"name":"tokenAmount","type":"uint128","internalType":"uint128"},{"name":"depositNonce","type":"uint64","internalType":"uint64"}]}],"outputs":[{"name":"","type":"uint256","internalType":"uint256"}],"stateMutability":"view"},{"type":"function","name":"getRole","inputs":[],"outputs":[{"name":"","type":"string","internalType":"string"}],"stateMutability":"pure"},{"type":"function","name":"initialize","inputs":[],"outputs":[],"stateMutability":"nonpayable"},{"type":"function","name":"ledgerChainId","inputs":[],"outputs":[{"name":"","type":"uint256","internalType":"uint256"}],"stateMutability":"view"},{"type":"function","name":"ledgerCrossChainManagers","inputs":[{"name":"","type":"uint256","internalType":"uint256"}],"outputs":[{"name":"","type":"address","internalType":"address"}],"stateMutability":"view"},{"type":"function","name":"mintFinish","inputs":[{"name":"data","type":"tuple","internalType":"struct RebalanceTypes.RebalanceMintCCFinishData","components":[{"name":"success","type":"bool","internalType":"bool"},{"name":"rebalanceId","type":"uint64","internalType":"uint64"},{"name":"amount","type":"uint128","internalType":"uint128"},{"name":"tokenHash","type":"bytes32","internalType":"bytes32"},{"name":"burnChainId","type":"uint256","internalType":"uint256"},{"name":"mintChainId","type":"uint256","internalType":"uint256"}]}],"outputs":[],"stateMutability":"nonpayable"},{"type":"function","name":"owner","inputs":[],"outputs":[{"name":"","type":"address","internalType":"address"}],"stateMutability":"view"},{"type":"function","name":"proxiableUUID","inputs":[],"outputs":[{"name":"","type":"bytes32","internalType":"bytes32"}],"stateMutability":"view"},{"type":"function","name":"receiveMessage","inputs":[{"name":"message","type":"tuple","internalType":"struct OrderlyCrossChainMessage.MessageV1","components":[{"name":"method","type":"uint8","internalType":"uint8"},{"name":"option","type":"uint8","internalType":"uint8"},{"name":"payloadDataType","type":"uint8","internalType":"uint8"},{"name":"srcCrossChainManager","type":"address","internalType":"address"},{"name":"dstCrossChainManager","type":"address","internalType":"address"},{"name":"srcChainId","type":"uint256","internalType":"uint256"},{"name":"dstChainId","type":"uint256","internalType":"uint256"}]},{"name":"payload","type":"bytes","internalType":"bytes"}],"outputs":[],"stateMutability":"nonpayable"},{"type":"function","name":"renounceOwnership","inputs":[],"outputs":[],"stateMutability":"nonpayable"},{"type":"function","name":"setCCRelayOption","inputs":[{"name":"_ccRelayOption","type":"uint8","internalType":"uint8"}],"outputs":[],"stateMutability":"nonpayable"},{"type":"function","name":"setChainId","inputs":[{"name":"_chainId","type":"uint256","internalType":"uint256"}],"outputs":[],"stateMutability":"nonpayable"},{"type":"function","name":"setCrossChainRelay","inputs":[{"name":"_crossChainRelay","type":"address","internalType":"address"}],"outputs":[],"stateMutability":"nonpayable"},{"type":"function","name":"setCrossChainRelayV2","inputs":[{"name":"_crossChainRelayV2","type":"address","internalType":"address"}],"outputs":[],"stateMutability":"nonpayable"},{"type":"function","name":"setLedgerCrossChainManager","inputs":[{"name":"_chainId","type":"uint256","internalType":"uint256"},{"name":"_ledgerCrossChainManager","type":"address","internalType":"address"}],"outputs":[],"stateMutability":"nonpayable"},{"type":"function","name":"setRelayStatus","inputs":[{"name":"_ccRelay","type":"address","internalType":"address"},{"name":"_status","type":"bool","internalType":"bool"}],"outputs":[],"stateMutability":"nonpayable"},{"type":"function","name":"setVault","inputs":[{"name":"_vault","type":"address","internalType":"address"}],"outputs":[],"stateMutability":"nonpayable"},{"type":"function","name":"transferOwnership","inputs":[{"name":"newOwner","type":"address","internalType":"address"}],"outputs":[],"stateMutability":"nonpayable"},{"type":"function","name":"upgradeTo","inputs":[{"name":"newImplementation","type":"address","internalType":"address"}],"outputs":[],"stateMutability":"nonpayable"},{"type":"function","name":"upgradeToAndCall","inputs":[{"name":"newImplementation","type":"address","internalType":"address"},{"name":"data","type":"bytes","internalType":"bytes"}],"outputs":[],"stateMutability":"payable"},{"type":"function","name":"vault","inputs":[],"outputs":[{"name":"","type":"address","internalType":"contract IVault"}],"stateMutability":"view"},{"type":"function","name":"withdraw","inputs":[{"name":"data","type":"tuple","internalType":"struct VaultTypes.VaultWithdraw","components":[{"name":"accountId","type":"bytes32","internalType":"bytes32"},{"name":"brokerHash","type":"bytes32","internalType":"bytes32"},{"name":"tokenHash","type":"bytes32","internalType":"bytes32"},{"name":"tokenAmount","type":"uint128","internalType":"uint128"},{"name":"fee","type":"uint128","internalType":"uint128"},{"name":"sender","type":"address","internalType":"address"},{"name":"receiver","type":"address","internalType":"address"},{"name":"withdrawNonce","type":"uint64","internalType":"uint64"}]}],"outputs":[],"stateMutability":"nonpayable"},{"type":"event","name":"AdminChanged","inputs":[{"name":"previousAdmin","type":"address","indexed":false,"internalType":"address"},{"name":"newAdmin","type":"address","indexed":false,"internalType":"address"}],"anonymous":false},{"type":"event","name":"BeaconUpgraded","inputs":[{"name":"beacon","type":"address","indexed":true,"internalType":"address"}],"anonymous":false},{"type":"event","name":"Initialized","inputs":[{"name":"version","type":"uint8","indexed":false,"internalType":"uint8"}],"anonymous":false},{"type":"event","name":"OwnershipTransferred","inputs":[{"name":"previousOwner","type":"address","indexed":true,"internalType":"address"},{"name":"newOwner","type":"address","indexed":true,"internalType":"address"}],"anonymous":false},{"type":"event","name":"SetCCRelayOption","inputs":[{"name":"ccRelayOption","type":"uint8","indexed":false,"internalType":"uint8"}],"anonymous":false},{"type":"event","name":"SetCCRelayStatus","inputs":[{"name":"ccRelay","type":"address","indexed":true,"internalType":"address"},{"name":"status","type":"bool","indexed":false,"internalType":"bool"}],"anonymous":false},{"type":"event","name":"Upgraded","inputs":[{"name":"implementation","type":"address","indexed":true,"internalType":"address"}],"anonymous":false}],"bytecode":{"object":"0x60a06040523060805234801561001457600080fd5b50608051612c7c61003e6000396000818161090a0152818161098f0152610a670152612c7c6000f3fe6080604052600436106101d85760003560e01c8063754c562211610102578063c1f5fb8811610095578063fbfa77cf11610064578063fbfa77cf14610533578063fde0817414610553578063fde6e2eb14610587578063ff5598b0146105a757600080fd5b8063c1f5fb881461049d578063c46ceae8146104bd578063ef0e2ff4146104f3578063f2fde38b1461051357600080fd5b80638da5cb5b116100d15780638da5cb5b1461042957806398c2d086146104475780639a8a059214610467578063a8f0d0701461047d57600080fd5b8063754c5622146103af578063760f5a83146103cf5780637b6471d0146103ef5780638129fc1c1461041457600080fd5b80634f1ef2861161017a5780636817031b116101495780636817031b14610322578063715018a61461034257806371b3dcb31461035757806374e6cb131461037757600080fd5b80634f1ef286146102c457806352d1902d146102d757806358a12670146102ec57806360ccbffc1461030c57600080fd5b806339953064116101b657806339953064146102455780633a8c5899146102715780634645c962146102915780634c0e4336146102a457600080fd5b80632690952b146101dd5780632b064612146102105780633659cfe614610225575b600080fd5b3480156101e957600080fd5b506101fd6101f8366004611fb2565b6105e7565b6040519081526020015b60405180910390f35b61022361021e366004611fb2565b61068e565b005b34801561023157600080fd5b50610223610240366004611fce565b610746565b34801561025157600080fd5b5060ce5461025f9060ff1681565b60405160ff9091168152602001610207565b34801561027d57600080fd5b5061022361028c36600461206e565b61076d565b61022361029f36600461208a565b610825565b3480156102b057600080fd5b506102236102bf366004611fce565b6108d6565b6102236102d236600461213d565b610900565b3480156102e357600080fd5b506101fd610a5a565b3480156102f857600080fd5b5061022361030736600461206e565b610b0d565b34801561031857600080fd5b506101fd60ca5481565b34801561032e57600080fd5b5061022361033d366004611fce565b610b5c565b34801561034e57600080fd5b50610223610b86565b34801561036357600080fd5b5061022361037236600461219b565b610b9a565b34801561038357600080fd5b5060cc54610397906001600160a01b031681565b6040516001600160a01b039091168152602001610207565b3480156103bb57600080fd5b506102236103ca36600461224f565b6110cf565b3480156103db57600080fd5b506102236103ea366004611fce565b611136565b3480156103fb57600080fd5b5060ce546103979061010090046001600160a01b031681565b34801561042057600080fd5b50610223611166565b34801561043557600080fd5b506033546001600160a01b0316610397565b34801561045357600080fd5b5061022361046236600461227b565b61127f565b34801561047357600080fd5b506101fd60c95481565b34801561048957600080fd5b50610223610498366004611fb2565b61131e565b3480156104a957600080fd5b506102236104b836600461232f565b6113ad565b3480156104c957600080fd5b506103976104d836600461234c565b60cd602052600090815260409020546001600160a01b031681565b3480156104ff57600080fd5b5061022361050e36600461234c565b6113f7565b34801561051f57600080fd5b5061022361052e366004611fce565b611404565b34801561053f57600080fd5b5060cb54610397906001600160a01b031681565b34801561055f57600080fd5b5060408051808201825260058152641d985d5b1d60da1b6020820152905161020791906123b5565b34801561059357600080fd5b506102236105a23660046123c8565b61147a565b3480156105b357600080fd5b506105d76105c2366004611fce565b60cf6020526000908152604090205460ff1681565b6040519015158152602001610207565b6000806040518060e0016040528060006009811115610608576106086123f8565b60ff908116825260ce5416602080830191909152600360408084019190915230606084015260ca54600081815260cd8452828120546001600160a01b0316608086015260c95460a086015260c09094015251929350909161066b9186910161240e565b604051602081830303815290604052905061068682826114b5565b949350505050565b60cb546001600160a01b031633146106c15760405162461bcd60e51b81526004016106b890612468565b60405180910390fd5b6040805160e081018252600080825260ce5460ff1660208084019190915260038385015230606084015260ca5480835260cd8252848320546001600160a01b0316608085015260c95460a085015260c08401529251919290916107269185910161240e565b604051602081830303815290604052905061074182826115ec565b505050565b61074e61168f565b6040805160008082526020820190925261076a918391906116e9565b50565b60cb546001600160a01b031633146107975760405162461bcd60e51b81526004016106b890612468565b6040805160e081018252600680825260ce5460ff1660208301526000928201905b60ff1681523060208083019190915260ca54600081815260cd83526040808220546001600160a01b03168186015260c95460608601526080909401919091529151929350909161080a918591016124b3565b60405160208183030381529060405290506107418282611854565b60cb546001600160a01b0316331461084f5760405162461bcd60e51b81526004016106b890612468565b6040805160e081018252600080825260ce5460ff1660208084019190915260038385015230606084015260ca5480835260cd8252848320546001600160a01b0316608085015260c95460a085015260c08401529251919290916108b49185910161240e565b60405160208183030381529060405290506108d0848383611910565b50505050565b6108de61168f565b60cc80546001600160a01b0319166001600160a01b0392909216919091179055565b6001600160a01b037f000000000000000000000000000000000000000000000000000000000000000016300361098d5760405162461bcd60e51b815260206004820152602c60248201527f46756e6374696f6e206d7573742062652063616c6c6564207468726f7567682060448201526b19195b1959d85d1958d85b1b60a21b60648201526084016106b8565b7f00000000000000000000000000000000000000000000000000000000000000006001600160a01b03166109d6600080516020612c00833981519152546001600160a01b031690565b6001600160a01b031614610a415760405162461bcd60e51b815260206004820152602c60248201527f46756e6374696f6e206d7573742062652063616c6c6564207468726f7567682060448201526b6163746976652070726f787960a01b60648201526084016106b8565b610a4a826119b7565b610a56828260016116e9565b5050565b6000306001600160a01b037f00000000000000000000000000000000000000000000000000000000000000001614610afa5760405162461bcd60e51b815260206004820152603860248201527f555550535570677261646561626c653a206d757374206e6f742062652063616c60448201527f6c6564207468726f7567682064656c656761746563616c6c000000000000000060648201526084016106b8565b50600080516020612c0083398151915290565b60cb546001600160a01b03163314610b375760405162461bcd60e51b81526004016106b890612468565b6040805160e081018252600880825260ce5460ff1660208301526000928201906107b8565b610b6461168f565b60cb80546001600160a01b0319166001600160a01b0392909216919091179055565b610b8e61168f565b610b9860006119bf565b565b33600090815260cf602052604090205460ff16610c175760405162461bcd60e51b815260206004820152603560248201527f5661756c7443726f7373436861696e4d616e616765723a206f6e6c7920656e61604482015274189b19590810d0d4995b185e4818d85b8818d85b1b605a1b60648201526084016106b8565b60c9548260c0015114610c815760405162461bcd60e51b815260206004820152602c60248201527f5661756c7443726f7373436861696e4d616e616765723a20647374436861696e60448201526b092c840dcdee840dac2e8c6d60a31b60648201526084016106b8565b604082015160ff16610db457600081806020019051810190610ca3919061257b565b60408051808201909152601581527410dc9bdcdcd0da185a5b93585b9859d95c95195cdd605a1b60209182015261018082015180519101209091507feb4151a2983b4ebe96db3e2ca85e9ca19b34fa8ec68f22e0705123d5b0cb677f01610d0c57610741611a11565b600060405180610100016040528083606001518152602001610d32846101600151611aa4565b8152602001610d45846101800151611aa4565b815260200183600001516001600160801b0316815260200183602001516001600160801b031681526020018360e001516001600160a01b031681526020018361012001516001600160a01b031681526020018361010001516001600160401b031681525090506108d081611ad4565b600960ff16826040015160ff1603610f2f57600081806020019051810190610ddc91906126c3565b9050600060405180610140016040528083608001516001811115610e0257610e026123f8565b60ff166001811115610e1657610e166123f8565b6001811115610e2757610e276123f8565b8152602001836060015181526020018361012001518152602001836101400151815260200183600001516001600160801b0316815260200183602001516001600160801b031681526020018360a001516001600160a01b031681526020018360e001516001600160a01b031681526020018360c001516001600160401b03168152602001836101600151815250905060cb60009054906101000a90046001600160a01b03166001600160a01b031663fea65b49826040518263ffffffff1660e01b8152600401610ef791906127b0565b600060405180830381600087803b158015610f1157600080fd5b505af1158015610f25573d6000803e3d6000fd5b5050505050505050565b600560ff16826040015160ff160361101457600081806020019051810190610f579190612874565b60cb546040805163163ed90d60e31b8152835163ffffffff16600482015260208401516001600160401b03166024820152908301516001600160801b03166044820152606083015160648201526080830151608482015260a083015160a482015260c08301516001600160a01b0390811660c483015292935091169063b1f6c8689060e4015b600060405180830381600087803b158015610ff757600080fd5b505af115801561100b573d6000803e3d6000fd5b50505050505050565b600760ff16826040015160ff160361106d5760008180602001905181019061103c91906128fc565b60cb5460405163d2c493fd60e01b81529192506001600160a01b03169063d2c493fd90610fdd9084906004016129cc565b60405162461bcd60e51b815260206004820152603160248201527f5661756c7443726f7373436861696e4d616e616765723a207061796c6f6164446044820152700c2e8c2a8f2e0ca40dcdee840dac2e8c6d607b1b60648201526084016106b8565b6110d761168f565b6001600160a01b038216600081815260cf6020908152604091829020805460ff191685151590811790915591519182527f066624363ad2d4c4fa6d43dede7469584bb260c6af44533a5ed3aa75ec501fcb910160405180910390a25050565b61113e61168f565b60ce80546001600160a01b0390921661010002610100600160a81b0319909216919091179055565b600054610100900460ff16158080156111865750600054600160ff909116105b806111a05750303b1580156111a0575060005460ff166001145b6112035760405162461bcd60e51b815260206004820152602e60248201527f496e697469616c697a61626c653a20636f6e747261637420697320616c72656160448201526d191e481a5b9a5d1a585b1a5e995960921b60648201526084016106b8565b6000805460ff191660011790558015611226576000805461ff0019166101001790555b61122e611b39565b611236611b68565b801561076a576000805461ff0019169055604051600181527f7f26b83ff96e1f2b6a682f133852f6798a09c465da95921460cefb3847402498906020015b60405180910390a150565b60cb546001600160a01b031633146112a95760405162461bcd60e51b81526004016106b890612468565b6040805160e081019091526000908060025b60ff908116825260ce5416602080830191909152600460408084019190915230606084015260ca54600081815260cd8452828120546001600160a01b0316608086015260c95460a086015260c09094015251929350909161080a91859101612a53565b60cb546001600160a01b031633146113485760405162461bcd60e51b81526004016106b890612468565b6040805160e081018252600080825260ce5460ff1660208084019190915260038385015230606084015260ca5480835260cd8252848320546001600160a01b0316608085015260c95460a085015260c084015292519192909161080a9185910161240e565b6113b561168f565b60ce805460ff191660ff83169081179091556040519081527faff584da2821e70fdd4352d55595791e2b75d339f42dc36b867e3d9cc474d90290602001611274565b6113ff61168f565b60c955565b61140c61168f565b6001600160a01b0381166114715760405162461bcd60e51b815260206004820152602660248201527f4f776e61626c653a206e6577206f776e657220697320746865207a65726f206160448201526564647265737360d01b60648201526084016106b8565b61076a816119bf565b61148261168f565b60ca829055600091825260cd602052604090912080546001600160a01b0319166001600160a01b03909216919091179055565b602082015160009060ff1661153e5760cc5460405163641df3f960e01b81526001600160a01b039091169063641df3f9906114f69086908690600401612b2d565b602060405180830381865afa158015611513573d6000803e3d6000fd5b505050506040513d601f19601f820116820180604052508101906115379190612b4e565b90506115e6565b600160ff16836020015160ff16036115865760ce5460405163641df3f960e01b81526101009091046001600160a01b03169063641df3f9906114f69086908690600401612b2d565b60405162461bcd60e51b815260206004820152602f60248201527f5661756c7443726f7373436861696e4d616e616765723a20636352656c61794f60448201526e0e0e8d2dedc40dcdee840dac2e8c6d608b1b60648201526084016106b8565b92915050565b602082015160ff166116455760cc5460405163a1e3a4bd60e01b81526001600160a01b039091169063a1e3a4bd90349061162c9086908690600401612b2d565b6000604051808303818588803b158015610ff757600080fd5b600160ff16826020015160ff16036115865760ce5460405163a1e3a4bd60e01b81526101009091046001600160a01b03169063a1e3a4bd90349061162c9086908690600401612b2d565b6033546001600160a01b03163314610b985760405162461bcd60e51b815260206004820181905260248201527f4f776e61626c653a2063616c6c6572206973206e6f7420746865206f776e657260448201526064016106b8565b7f4910fdfa16fed3260ed0e7147f7cc6da11a60208b5b9406d12a635614ffd91435460ff161561171c5761074183611b8f565b826001600160a01b03166352d1902d6040518163ffffffff1660e01b8152600401602060405180830381865afa925050508015611776575060408051601f3d908101601f1916820190925261177391810190612b4e565b60015b6117d95760405162461bcd60e51b815260206004820152602e60248201527f45524331393637557067726164653a206e657720696d706c656d656e7461746960448201526d6f6e206973206e6f74205555505360901b60648201526084016106b8565b600080516020612c0083398151915281146118485760405162461bcd60e51b815260206004820152602960248201527f45524331393637557067726164653a20756e737570706f727465642070726f786044820152681a58589b195555525160ba1b60648201526084016106b8565b50610741838383611c2b565b602082015160ff166118c85760cc54604051634427ec2f60e11b81526001600160a01b039091169063884fd85e906118929085908590600401612b2d565b600060405180830381600087803b1580156118ac57600080fd5b505af11580156118c0573d6000803e3d6000fd5b505050505050565b600160ff16826020015160ff16036115865760ce54604051634427ec2f60e11b81526101009091046001600160a01b03169063884fd85e906118929085908590600401612b2d565b602082015160ff1661196b5760cc5460405163f5a4fff560e01b81526001600160a01b039091169063f5a4fff590349061195290879087908790600401612b67565b6000604051808303818588803b158015610f1157600080fd5b600160ff16826020015160ff16036115865760ce5460405163f5a4fff560e01b81526101009091046001600160a01b03169063f5a4fff590349061195290879087908790600401612b67565b61076a61168f565b603380546001600160a01b038381166001600160a01b0319831681179093556040519116919082907f8be0079c531659141344cd1fd0a4f28419497f9722a3daafe3b4186f6b6457e090600090a35050565b60006040518061010001604052806000801b81526020016000801b8152602001611a676040518060400160405280601581526020017410dc9bdcdcd0da185a5b93585b9859d95c95195cdd605a1b815250611aa4565b81526000602082018190526040808301829052606083018290526080830182905260a0909201819052815160e081019092529192508060026112bb565b600081604051602001611ab79190612b98565b604051602081830303815290604052805190602001209050919050565b60cb54604051634c61684360e11b81526001600160a01b03909116906398c2d08690611b04908490600401612a53565b600060405180830381600087803b158015611b1e57600080fd5b505af1158015611b32573d6000803e3d6000fd5b5050505050565b600054610100900460ff16611b605760405162461bcd60e51b81526004016106b890612bb4565b610b98611c50565b600054610100900460ff16610b985760405162461bcd60e51b81526004016106b890612bb4565b6001600160a01b0381163b611bfc5760405162461bcd60e51b815260206004820152602d60248201527f455243313936373a206e657720696d706c656d656e746174696f6e206973206e60448201526c1bdd08184818dbdb9d1c9858dd609a1b60648201526084016106b8565b600080516020612c0083398151915280546001600160a01b0319166001600160a01b0392909216919091179055565b611c3483611c80565b600082511180611c415750805b15610741576108d08383611cc0565b600054610100900460ff16611c775760405162461bcd60e51b81526004016106b890612bb4565b610b98336119bf565b611c8981611b8f565b6040516001600160a01b038216907fbc7cd75a20ee27fd9adebab32041f755214dbc6bffa90cc0225b39da2e5c2d3b90600090a250565b6060611ce58383604051806060016040528060278152602001612c2060279139611cec565b9392505050565b6060600080856001600160a01b031685604051611d099190612b98565b600060405180830381855af49150503d8060008114611d44576040519150601f19603f3d011682016040523d82523d6000602084013e611d49565b606091505b5091509150611d5a86838387611d64565b9695505050505050565b60608315611dd3578251600003611dcc576001600160a01b0385163b611dcc5760405162461bcd60e51b815260206004820152601d60248201527f416464726573733a2063616c6c20746f206e6f6e2d636f6e747261637400000060448201526064016106b8565b5081610686565b6106868383815115611de85781518083602001fd5b8060405162461bcd60e51b81526004016106b891906123b5565b634e487b7160e01b600052604160045260246000fd5b60405160c081016001600160401b0381118282101715611e3a57611e3a611e02565b60405290565b60405160e081016001600160401b0381118282101715611e3a57611e3a611e02565b6040516101a081016001600160401b0381118282101715611e3a57611e3a611e02565b60405161018081016001600160401b0381118282101715611e3a57611e3a611e02565b604051601f8201601f191681016001600160401b0381118282101715611ed057611ed0611e02565b604052919050565b6001600160a01b038116811461076a57600080fd5b8035611ef881611ed8565b919050565b6001600160801b038116811461076a57600080fd5b8035611ef881611efd565b6001600160401b038116811461076a57600080fd5b8035611ef881611f1d565b600060c08284031215611f4f57600080fd5b611f57611e18565b9050813581526020820135611f6b81611ed8565b8060208301525060408201356040820152606082013560608201526080820135611f9481611efd565b608082015260a0820135611fa781611f1d565b60a082015292915050565b600060c08284031215611fc457600080fd5b611ce58383611f3d565b600060208284031215611fe057600080fd5b8135611ce581611ed8565b80358015158114611ef857600080fd5b600060c0828403121561200d57600080fd5b612015611e18565b905061202082611feb565b8152602082013561203081611f1d565b6020820152604082013561204381611efd565b80604083015250606082013560608201526080820135608082015260a082013560a082015292915050565b600060c0828403121561208057600080fd5b611ce58383611ffb565b60008060e0838503121561209d57600080fd5b82356120a881611ed8565b91506120b78460208501611f3d565b90509250929050565b60006001600160401b038211156120d9576120d9611e02565b50601f01601f191660200190565b600082601f8301126120f857600080fd5b813561210b612106826120c0565b611ea8565b81815284602083860101111561212057600080fd5b816020850160208301376000918101602001919091529392505050565b6000806040838503121561215057600080fd5b823561215b81611ed8565b915060208301356001600160401b0381111561217657600080fd5b612182858286016120e7565b9150509250929050565b60ff8116811461076a57600080fd5b6000808284036101008112156121b057600080fd5b60e08112156121be57600080fd5b506121c7611e40565b83356121d28161218c565b815260208401356121e28161218c565b602082015260408401356121f58161218c565b6040820152606084013561220881611ed8565b606082015261221960808501611eed565b608082015260a084013560a082015260c084013560c08201528092505060e08301356001600160401b0381111561217657600080fd5b6000806040838503121561226257600080fd5b823561226d81611ed8565b91506120b760208401611feb565b600061010080838503121561228f57600080fd5b604051908101906001600160401b03821181831017156122b1576122b1611e02565b81604052833581526020840135602082015260408401356040820152606084013591506122dd82611efd565b8160608201526122ef60808501611f12565b608082015261230060a08501611eed565b60a082015261231160c08501611eed565b60c082015261232260e08501611f32565b60e0820152949350505050565b60006020828403121561234157600080fd5b8135611ce58161218c565b60006020828403121561235e57600080fd5b5035919050565b60005b83811015612380578181015183820152602001612368565b50506000910152565b600081518084526123a1816020860160208601612365565b601f01601f19169290920160200192915050565b602081526000611ce56020830184612389565b600080604083850312156123db57600080fd5b8235915060208301356123ed81611ed8565b809150509250929050565b634e487b7160e01b600052602160045260246000fd5b815181526020808301516001600160a01b03169082015260408083015190820152606080830151908201526080808301516001600160801b03169082015260a0918201516001600160401b03169181019190915260c00190565b6020808252602b908201527f5661756c7443726f7373436861696e4d616e616765723a206f6e6c792076617560408201526a1b1d0818d85b8818d85b1b60aa1b606082015260800190565b60c081016115e682848051151582526001600160401b0360208201511660208301526001600160801b036040820151166040830152606081015160608301526080810151608083015260a081015160a08301525050565b8051611ef881611efd565b8051611ef88161218c565b8051611ef881611ed8565b8051611ef881611f1d565b600082601f83011261254757600080fd5b8151612555612106826120c0565b81815284602083860101111561256a57600080fd5b610686826020830160208701612365565b60006020828403121561258d57600080fd5b81516001600160401b03808211156125a457600080fd5b908301906101a082860312156125b957600080fd5b6125c1611e62565b6125ca8361250a565b81526125d86020840161250a565b602082015260408301516040820152606083015160608201526080830151608082015260a083015160a082015261261160c08401612515565b60c082015261262260e08401612520565b60e082015261010061263581850161252b565b90820152610120612647848201612520565b9082015261014061265984820161252b565b90820152610160838101518381111561267157600080fd5b61267d88828701612536565b828401525050610180808401518381111561269757600080fd5b6126a388828701612536565b918301919091525095945050505050565b805160028110611ef857600080fd5b600061018082840312156126d657600080fd5b6126de611e85565b6126e78361250a565b81526126f56020840161250a565b6020820152604083015160408201526060830151606082015261271a608084016126b4565b608082015261272b60a08401612520565b60a082015261273c60c0840161252b565b60c082015261274d60e08401612520565b60e082015261010061276081850161252b565b9082015261012083810151908201526101408084015190820152610160928301519281019290925250919050565b600281106127ac57634e487b7160e01b600052602160045260246000fd5b9052565b6000610140820190506127c482845161278e565b60208301516020830152604083015160408301526060830151606083015260808301516127fc60808401826001600160801b03169052565b5060a083015161281760a08401826001600160801b03169052565b5060c083015161283260c08401826001600160a01b03169052565b5060e083015161284d60e08401826001600160a01b03169052565b50610100838101516001600160401b03811684830152505061012092830151919092015290565b600060e0828403121561288657600080fd5b61288e611e40565b825163ffffffff811681146128a257600080fd5b81526128b06020840161252b565b60208201526128c16040840161250a565b6040820152606083015160608201526080830151608082015260a083015160a08201526128f060c08401612520565b60c08201529392505050565b60006020828403121561290e57600080fd5b81516001600160401b038082111561292557600080fd5b9083019060e0828603121561293957600080fd5b612941611e40565b61294a8361252b565b81526129586020840161250a565b602082015260408301516040820152606083015160608201526080830151608082015260a08301518281111561298d57600080fd5b61299987828601612536565b60a08301525060c0830151828111156129b157600080fd5b6129bd87828601612536565b60c08301525095945050505050565b602081526001600160401b0382511660208201526001600160801b0360208301511660408201526040820151606082015260608201516080820152608082015160a0820152600060a083015160e060c0840152612a2d610100840182612389565b905060c0840151601f198483030160e0850152612a4a8282612389565b95945050505050565b60006101008201905082518252602083015160208301526040830151604083015260608301516001600160801b038082166060850152806080860151166080850152505060a083015160018060a01b0380821660a08501528060c08601511660c085015250506001600160401b0360e08401511660e083015292915050565b60ff815116825260ff602082015116602083015260ff6040820151166040830152606081015160018060a01b038082166060850152806080840151166080850152505060a081015160a083015260c081015160c08301525050565b6000610100612b3c8386612ad2565b8060e0840152612a4a81840185612389565b600060208284031215612b6057600080fd5b5051919050565b6001600160a01b03841681526000610120612b856020840186612ad2565b80610100840152611d5a81840185612389565b60008251612baa818460208701612365565b9190910192915050565b6020808252602b908201527f496e697469616c697a61626c653a20636f6e7472616374206973206e6f74206960408201526a6e697469616c697a696e6760a81b60608201526080019056fe360894a13ba1a3210667c828492db98dca3e2076cc3735a920a3ca505d382bbc416464726573733a206c6f772d6c6576656c2064656c65676174652063616c6c206661696c6564a26469706673582212205d8331736ff058f18a0923c6f26febff58f40a49ee47843a871e4b3539709edb64736f6c63430008130033","linkReferences":{}},"methodIdentifiers":{"burnFinish((bool,uint64,uint128,bytes32,uint256,uint256))":"3a8c5899","ccRelayOption()":"39953064","chainId()":"9a8a0592","crossChainRelay()":"74e6cb13","crossChainRelayV2()":"7b6471d0","deposit((bytes32,address,bytes32,bytes32,uint128,uint64))":"a8f0d070","depositWithFee((bytes32,address,bytes32,bytes32,uint128,uint64))":"2b064612","depositWithFeeRefund(address,(bytes32,address,bytes32,bytes32,uint128,uint64))":"4645c962","enabledRelays(address)":"ff5598b0","getDepositFee((bytes32,address,bytes32,bytes32,uint128,uint64))":"2690952b","getRole()":"fde08174","initialize()":"8129fc1c","ledgerChainId()":"60ccbffc","ledgerCrossChainManagers(uint256)":"c46ceae8","mintFinish((bool,uint64,uint128,bytes32,uint256,uint256))":"58a12670","owner()":"8da5cb5b","proxiableUUID()":"52d1902d","receiveMessage((uint8,uint8,uint8,address,address,uint256,uint256),bytes)":"71b3dcb3","renounceOwnership()":"715018a6","setCCRelayOption(uint8)":"c1f5fb88","setChainId(uint256)":"ef0e2ff4","setCrossChainRelay(address)":"4c0e4336","setCrossChainRelayV2(address)":"760f5a83","setLedgerCrossChainManager(uint256,address)":"fde6e2eb","setRelayStatus(address,bool)":"754c5622","setVault(address)":"6817031b","transferOwnership(address)":"f2fde38b","upgradeTo(address)":"3659cfe6","upgradeToAndCall(address,bytes)":"4f1ef286","vault()":"fbfa77cf","withdraw((bytes32,bytes32,bytes32,uint128,uint128,address,address,uint64))":"98c2d086"},"id":23}